{
  "_format": "hh-sol-artifact-1",
  "contractName": "Core",
  "sourceName": "contracts/Core.sol",
  "abi": [
    {
      "inputs": [
        {
          "internalType": "address[6]",
          "name": "_sixFounders",
          "type": "address[6]"
        }
      ],
      "stateMutability": "payable",
      "type": "constructor"
    },
    {
      "anonymous": false,
      "inputs": [
        {
          "indexed": true,
          "internalType": "address",
          "name": "",
          "type": "address"
        },
        {
          "indexed": true,
          "internalType": "uint256",
          "name": "",
          "type": "uint256"
        }
      ],
      "name": "UserRegistered",
      "type": "event"
    },
    {
      "anonymous": false,
      "inputs": [
        {
          "indexed": true,
          "internalType": "address",
          "name": "",
          "type": "address"
        },
        {
          "indexed": true,
          "internalType": "uint256",
          "name": "",
          "type": "uint256"
        },
        {
          "indexed": true,
          "internalType": "uint256",
          "name": "",
          "type": "uint256"
        }
      ],
      "name": "UserUpdated",
      "type": "event"
    },
    {
      "stateMutability": "payable",
      "type": "fallback"
    },
    {
      "inputs": [
        {
          "internalType": "uint256",
          "name": "_matrixIndex",
          "type": "uint256"
        },
        {
          "internalType": "uint256",
          "name": "_userIndex",
          "type": "uint256"
        }
      ],
      "name": "getCoreUserByMatrixPosition",
      "outputs": [
        {
          "internalType": "address",
          "name": "userAddress",
          "type": "address"
        },
        {
          "components": [
            {
              "internalType": "uint256",
              "name": "claims",
              "type": "uint256"
            },
            {
              "internalType": "uint256",
              "name": "gifts",
              "type": "uint256"
            },
            {
              "internalType": "uint256",
              "name": "level",
              "type": "uint256"
            },
            {
              "internalType": "address",
              "name": "whose",
              "type": "address"
            },
            {
              "internalType": "bool",
              "name": "isValue",
              "type": "bool"
            }
          ],
          "internalType": "struct Core.UserGlobal",
          "name": "user",
          "type": "tuple"
        }
      ],
      "stateMutability": "view",
      "type": "function"
    },
    {
      "inputs": [
        {
          "internalType": "uint256",
          "name": "_level",
          "type": "uint256"
        }
      ],
      "name": "getLevelContract",
      "outputs": [
        {
          "internalType": "address",
          "name": "",
          "type": "address"
        }
      ],
      "stateMutability": "view",
      "type": "function"
    },
    {
      "inputs": [],
      "name": "getTenPercentOnceYear",
      "outputs": [],
      "stateMutability": "nonpayable",
      "type": "function"
    },
    {
      "inputs": [
        {
          "internalType": "address",
          "name": "_userAddress",
          "type": "address"
        }
      ],
      "name": "getUserFromCore",
      "outputs": [
        {
          "components": [
            {
              "internalType": "uint256",
              "name": "claims",
              "type": "uint256"
            },
            {
              "internalType": "uint256",
              "name": "gifts",
              "type": "uint256"
            },
            {
              "internalType": "uint256",
              "name": "level",
              "type": "uint256"
            },
            {
              "internalType": "address",
              "name": "whose",
              "type": "address"
            },
            {
              "internalType": "bool",
              "name": "isValue",
              "type": "bool"
            }
          ],
          "internalType": "struct Core.UserGlobal",
          "name": "user",
          "type": "tuple"
        }
      ],
      "stateMutability": "view",
      "type": "function"
    },
    {
      "inputs": [
        {
          "internalType": "uint256",
          "name": "_matrixIdx",
          "type": "uint256"
        },
        {
          "internalType": "address",
          "name": "_userWallet",
          "type": "address"
        }
      ],
      "name": "getUserFromMatrix",
      "outputs": [
        {
          "components": [
            {
              "internalType": "uint256",
              "name": "index",
              "type": "uint256"
            },
            {
              "internalType": "uint256",
              "name": "parent",
              "type": "uint256"
            },
            {
              "internalType": "bool",
              "name": "isRight",
              "type": "bool"
            },
            {
              "internalType": "uint256",
              "name": "plateau",
              "type": "uint256"
            },
            {
              "internalType": "bool",
              "name": "isValue",
              "type": "bool"
            }
          ],
          "internalType": "struct MatrixTemplate.User",
          "name": "user",
          "type": "tuple"
        }
      ],
      "stateMutability": "view",
      "type": "function"
    },
    {
      "inputs": [
        {
          "internalType": "address",
          "name": "_whose",
          "type": "address"
        }
      ],
      "name": "register",
      "outputs": [],
      "stateMutability": "payable",
      "type": "function"
    },
    {
      "inputs": [
        {
          "internalType": "address",
          "name": "_wallet",
          "type": "address"
        },
        {
          "internalType": "uint256",
          "name": "_matrixIndex",
          "type": "uint256"
        }
      ],
      "name": "sendHalf",
      "outputs": [],
      "stateMutability": "nonpayable",
      "type": "function"
    },
    {
      "inputs": [
        {
          "internalType": "address",
          "name": "_userAddress",
          "type": "address"
        },
        {
          "internalType": "uint256",
          "name": "_matrixIndex",
          "type": "uint256"
        },
        {
          "internalType": "uint256",
          "name": "_field",
          "type": "uint256"
        }
      ],
      "name": "updateUser",
      "outputs": [],
      "stateMutability": "nonpayable",
      "type": "function"
    },
    {
      "inputs": [
        {
          "internalType": "uint256",
          "name": "_amount",
          "type": "uint256"
        }
      ],
      "name": "withdrawClaim",
      "outputs": [],
      "stateMutability": "nonpayable",
      "type": "function"
    },
    {
      "stateMutability": "payable",
      "type": "receive"
    }
  ],
  "bytecode": "0x60a06040526001805560405162003488380380620034888339810160408190526200002a9162000224565b80516001600160a01b031660805260005b600681101562000153576000808211620000585750815162000081565b8262000066600184620002ea565b60068110620000795762000079620002be565b602002015190505b6040518060a00160405280600081526020016000815260200160138152602001826001600160a01b031681526020016001151581525060166000858560068110620000d057620000d0620002be565b602090810291909101516001600160a01b039081168352828201939093526040918201600020845181559084015160018201559083015160028201556060830151600390910180546080909401511515600160a01b026001600160a81b0319909416919092161791909117905550806200014a8162000306565b9150506200003b565b5060005b60138111620001ed5760008130846040516200017390620001f9565b620001819392919062000322565b604051809103906000f0801580156200019e573d6000803e3d6000fd5b5090508060028360148110620001b857620001b8620002be565b0180546001600160a01b0319166001600160a01b03929092169190911790555080620001e48162000306565b91505062000157565b50504260005562000375565b61192d8062001b5b83390190565b80516001600160a01b03811681146200021f57600080fd5b919050565b600060c082840312156200023757600080fd5b82601f8301126200024757600080fd5b60405160c081016001600160401b03811182821017156200027857634e487b7160e01b600052604160045260246000fd5b6040528060c08401858111156200028e57600080fd5b845b81811015620002b357620002a48162000207565b83526020928301920162000290565b509195945050505050565b634e487b7160e01b600052603260045260246000fd5b634e487b7160e01b600052601160045260246000fd5b81810381811115620003005762000300620002d4565b92915050565b6000600182016200031b576200031b620002d4565b5060010190565b8381526001600160a01b03838116602080840191909152610100830191604084018560005b60068110156200036857815184168352918401919084019060010162000347565b5050505050949350505050565b6080516117b5620003a6600039600081816103a8015281816106a5015281816107410152610a1401526117b56000f3fe6080604052600436106100915760003560e01c80638212e2bb11610063578063a224dcb71161004b578063a224dcb714610211578063dfac767c14610231578063fb1359a31461025157005b80638212e2bb1461017357806390e7af8f146101d957005b806305ca4ba6146100f55780632c4d363a146101155780634420e4861461012a5780635f8e7d031461013d57005b366100f3576001546001146100dd5760405162461bcd60e51b815260206004820152600d60248201526c4e6f207265656e7472616e637960981b60448201526064015b60405180910390fd5b60026001556100ec333461027f565b6001808055005b005b34801561010157600080fd5b506100f3610110366004611442565b610530565b34801561012157600080fd5b506100f3610736565b6100f3610138366004611477565b61092e565b34801561014957600080fd5b5061015d610158366004611477565b610cc4565b60405161016a9190611494565b60405180910390f35b34801561017f57600080fd5b5061019361018e3660046114d8565b610d66565b60405161016a9190600060a08201905082518252602083015160208301526040830151151560408301526060830151606083015260808301511515608083015292915050565b3480156101e557600080fd5b506101f96101f4366004611508565b610e3c565b6040516001600160a01b03909116815260200161016a565b34801561021d57600080fd5b506100f361022c366004611508565b610eb3565b34801561023d57600080fd5b506100f361024c366004611521565b61103f565b34801561025d57600080fd5b5061027161026c36600461154d565b61115b565b60405161016a92919061156f565b6001600160a01b03821660009081526016602052604081206003015481908190600160a01b900460ff161561030e576001600160a01b0385166000908152601660205260409020546102d29085906112c9565b6001600160a01b0386166000908152601660205260409020600201549093506102fc9060016112c9565b9150610307826112db565b905061031f565b5082915060009050662386f26fc100005b60138211610529575b80831061050d576001600160a01b038516600090815260166020526040902060030154600160a01b900460ff1615610381576001600160a01b038516600090815260166020526040902060028101839055839055610434565b6040805160a081018252848152600060208083018281528385018381526001600160a01b037f00000000000000000000000000000000000000000000000000000000000000008116606087019081526001608088018181528e84168852601690965297909520955186559151958501959095559351600284015590516003909201805491511515600160a01b0274ffffffffffffffffffffffffffffffffffffffffff1990921692909316919091171790555b60028260148110610447576104476115c2565b0154604051632210724360e11b81526001600160a01b03878116600483015290911690634420e48690602401600060405180830381600087803b15801561048d57600080fd5b505af11580156104a1573d6000803e3d6000fd5b50506040518492506001600160a01b03881691507fe29d35093005f4d575e1003753426b57a7f64378ba73332eef9c6ccc2b8decd690600090a38215610508576104eb838261131c565b92506104f8816002611328565b90506105058260016112c9565b91505b610328565b6001600160a01b03851660009081526016602052604090208390555b5050505050565b61053933611334565b6105855760405162461bcd60e51b815260206004820152600f60248201527f6163636573732064656e6965642031000000000000000000000000000000000060448201526064016100d4565b6000610590836112db565b90506000826000036105e3576001600160a01b0385166000908152601660205260409020600101546105c290836112c9565b6001600160a01b038616600090815260166020526040902060010155610689565b82600103610630576001600160a01b03851660009081526016602052604090205461060e90836112c9565b6001600160a01b03861660009081526016602052604090208190559050610689565b82600203610689576001600160a01b03808616600090815260166020526040808220600301549092168082529190205461066a90846112c9565b6001600160a01b03909116600090815260166020526040902081905590505b6000610696836002611328565b90508082101580156106da57507f00000000000000000000000000000000000000000000000000000000000000006001600160a01b0316866001600160a01b031614155b80156106e65750601385105b156106f6576106f686600061027f565b8084876001600160a01b03167f97ce9d7086176d6da45e4e7999788176e2629a7591ffe505b0c1b13fe8052cc660405160405180910390a4505050505050565b336001600160a01b037f000000000000000000000000000000000000000000000000000000000000000016146107ae5760405162461bcd60e51b815260206004820152600f60248201527f6163636573732064656e6965642033000000000000000000000000000000000060448201526064016100d4565b47806107fc5760405162461bcd60e51b815260206004820152601060248201527f62616c616e636520697320656d7074790000000000000000000000000000000060448201526064016100d4565b60006108286018610822603c610822603c6108226000544261131c90919063ffffffff16565b90611392565b905061016d81101561087c5760405162461bcd60e51b815260206004820152600f60248201527f79656172206e6f7420706173736564000000000000000000000000000000000060448201526064016100d4565b600061088983600a611392565b604051909150600090339083908381818185875af1925050503d80600081146108ce576040519150601f19603f3d011682016040523d82523d6000602084013e6108d3565b606091505b50509050806109245760405162461bcd60e51b815260206004820152600d60248201527f53656e64696e672065727220350000000000000000000000000000000000000060448201526064016100d4565b5050426000555050565b6001546001146109705760405162461bcd60e51b815260206004820152600d60248201526c4e6f207265656e7472616e637960981b60448201526064016100d4565b600260015533600090815260166020526040902060030154600160a01b900460ff16156109df5760405162461bcd60e51b815260206004820152601760248201527f7573657220616c7265616479207265676973746572656400000000000000000060448201526064016100d4565b6001600160a01b038116600090815260166020526040812060030154600160a01b900460ff1615610a11575080610a34565b507f00000000000000000000000000000000000000000000000000000000000000005b6001600160a01b038116600090815260166020526040812060010154662386f26fc100001115610add57662386f26fc10000341015610ab55760405162461bcd60e51b815260206004820152601160248201527f6e6f7420656e6f75676820616d6f756e7400000000000000000000000000000060448201526064016100d4565b662386f26fc10000341115610ad857610ad534662386f26fc1000061131c565b90505b610b29565b6001600160a01b038216600090815260166020526040902060010154610b0a90662386f26fc1000061131c565b6001600160a01b03831660009081526016602052604090206001015550345b6040805160a081018252600080825260208083018281528385018381526001600160a01b03808916606087019081526001608088018181523388526016909652978620965187559251968601969096555160028086019190915590516003909401805492511515600160a01b0274ffffffffffffffffffffffffffffffffffffffffff199093169490951693909317179092550154604051632210724360e11b81523360048201526001600160a01b0390911690634420e48690602401600060405180830381600087803b158015610c0057600080fd5b505af1158015610c14573d6000803e3d6000fd5b505050506000811115610cbb57604051600090339083908381818185875af1925050503d8060008114610c63576040519150601f19603f3d011682016040523d82523d6000602084013e610c68565b606091505b5050905080610cb95760405162461bcd60e51b815260206004820152600d60248201527f53656e64696e672065727220330000000000000000000000000000000000000060448201526064016100d4565b505b50506001805550565b610d016040518060a0016040528060008152602001600081526020016000815260200160006001600160a01b031681526020016000151581525090565b506001600160a01b03908116600090815260166020908152604091829020825160a081018452815481526001820154928101929092526002810154928201929092526003909101549182166060820152600160a01b90910460ff161515608082015290565b610d9c6040518060a001604052806000815260200160008152602001600015158152602001600081526020016000151581525090565b60028360148110610daf57610daf6115c2565b01546040517f6f77926b0000000000000000000000000000000000000000000000000000000081526001600160a01b03848116600483015290911690636f77926b9060240160a060405180830381865afa158015610e11573d6000803e3d6000fd5b505050506040513d601f19601f82011682018060405250810190610e3591906115ed565b9392505050565b60006013821115610e8f5760405162461bcd60e51b815260206004820152601660248201527f5f6c6576656c2065786365656473206d6178696d756d0000000000000000000060448201526064016100d4565b60028260148110610ea257610ea26115c2565b01546001600160a01b031692915050565b33600090815260166020526040902054811015610f8e5733600090815260166020526040902054610ee4908261131c565b3360008181526016602052604080822093909355915183908381818185875af1925050503d8060008114610f34576040519150601f19603f3d011682016040523d82523d6000602084013e610f39565b606091505b5050905080610f8a5760405162461bcd60e51b815260206004820152600d60248201527f53656e64696e672065727220310000000000000000000000000000000000000060448201526064016100d4565b5050565b33600081815260166020526040808220805490839055905190929083908381818185875af1925050503d8060008114610fe3576040519150601f19603f3d011682016040523d82523d6000602084013e610fe8565b606091505b50509050806110395760405162461bcd60e51b815260206004820152600d60248201527f53656e64696e672065727220320000000000000000000000000000000000000060448201526064016100d4565b50505b50565b61104833611334565b6110945760405162461bcd60e51b815260206004820152600f60248201527f6163636573732064656e6965642032000000000000000000000000000000000060448201526064016100d4565b601381106110a0575050565b60006110b06002610822846112db565b90506000836001600160a01b03168260405160006040518083038185875af1925050503d80600081146110ff576040519150601f19603f3d011682016040523d82523d6000602084013e611104565b606091505b50509050806111555760405162461bcd60e51b815260206004820152600d60248201527f53656e64696e672065727220340000000000000000000000000000000000000060448201526064016100d4565b50505050565b6040805160a081018252600080825260208201819052918101829052606081018290526080810182905260028460148110611198576111986115c2565b01546040517fcca76c5d000000000000000000000000000000000000000000000000000000008152600481018590526001600160a01b039091169063cca76c5d90602401602060405180830381865afa1580156111f9573d6000803e3d6000fd5b505050506040513d601f19601f8201168201806040525081019061121d9190611676565b915061125e6040518060400160405280601181526020017f436f72653a3a75736572416464726573730000000000000000000000000000008152508361139e565b506001600160a01b03818116600090815260166020908152604091829020825160a081018452815481526001820154928101929092526002810154928201929092526003909101549182166060820152600160a01b90910460ff161515608082015290939092509050565b6000610e3582846116a9565b92915050565b6000662386f26fc1000082156112d55760005b8381101561131557611301826002611328565b91508061130d816116bc565b9150506112ee565b5092915050565b6000610e3582846116d5565b6000610e3582846116e8565b6000805b601481101561138957826001600160a01b03166002826014811061135e5761135e6115c2565b01546001600160a01b0316036113775750600192915050565b80611381816116bc565b915050611338565b50600092915050565b6000610e3582846116ff565b610f8a82826040516024016113b4929190611721565b60408051601f198184030181529190526020810180517bffffffffffffffffffffffffffffffffffffffffffffffffffffffff167f319af3330000000000000000000000000000000000000000000000000000000017905280516a636f6e736f6c652e6c6f67602083016000808483855afa5050505050565b6001600160a01b038116811461103c57600080fd5b60008060006060848603121561145757600080fd5b83356114628161142d565b95602085013595506040909401359392505050565b60006020828403121561148957600080fd5b8135610e358161142d565b60a081016112d582848051825260208101516020830152604081015160408301526001600160a01b0360608201511660608301526080810151151560808301525050565b600080604083850312156114eb57600080fd5b8235915060208301356114fd8161142d565b809150509250929050565b60006020828403121561151a57600080fd5b5035919050565b6000806040838503121561153457600080fd5b823561153f8161142d565b946020939093013593505050565b6000806040838503121561156057600080fd5b50508035926020909101359150565b6001600160a01b038316815260c08101610e3560208301848051825260208101516020830152604081015160408301526001600160a01b0360608201511660608301526080810151151560808301525050565b634e487b7160e01b600052603260045260246000fd5b805180151581146115e857600080fd5b919050565b600060a082840312156115ff57600080fd5b60405160a0810181811067ffffffffffffffff8211171561163057634e487b7160e01b600052604160045260246000fd5b8060405250825181526020830151602082015261164f604084016115d8565b60408201526060830151606082015261166a608084016115d8565b60808201529392505050565b60006020828403121561168857600080fd5b8151610e358161142d565b634e487b7160e01b600052601160045260246000fd5b808201808211156112d5576112d5611693565b6000600182016116ce576116ce611693565b5060010190565b818103818111156112d5576112d5611693565b80820281158282048414176112d5576112d5611693565b60008261171c57634e487b7160e01b600052601260045260246000fd5b500490565b604081526000835180604084015260005b8181101561174f5760208187018101516060868401015201611732565b506000606082850101526060601f19601f8301168401019150506001600160a01b0383166020830152939250505056fea264697066735822122088bb33b5b27b0d52e91d65f385a1a2102f640faef21e176a229cbb7cb7bc1d6064736f6c6343000811003360c06040523480156200001157600080fd5b506040516200192d3803806200192d8339810160408190526200003491620005a0565b60005b60068160ff161015620001ae576000808062000052620001c8565b6040805160a0810182526002548152602081018590526000918101829052606081018490526001608082015293965091945092508290036200009657600160408201525b80600080888860ff1660068110620000b257620000b26200064e565b602090810291909101516001600160a01b031682528181019290925260409081016000208351815583830151600180830191909155918401516002808301805492151560ff1993841617905560608601516003840155608090950151600490920180549215159290911691909117905591546200013a9290916200050a620004e8821b17901c565b6002558560ff8616600681106200015557620001556200064e565b6020020151600160008760ff16815260200190815260200160002060006101000a8154816001600160a01b0302191690836001600160a01b03160217905550505050508080620001a5906200067a565b91505062000037565b50506080919091526001600160a01b031660a05262000833565b600080600080620003ac620001ee60028054620004e860201b6200050a1790919060201c565b604080517ff8f9cbfae6cc78fbefe7cdc3a1793dfcf4f0e8bbd8cec470b6a28a7a5a3e1efd81527ff5ecf1b3e9debc68e1d9cfabc5997135bfb7a7a3938b7b606b5b4b3f2f1f0ffe60208201527ff6e4ed9ff2d6b458eadcdf97bd91692de2d4da8fd2d0ac50c6ae9a8272523616818301527fc8c0b887b0a8a4489c948c7f847c6125746c645c544c444038302820181008ff60608201527ff7cae577eec2a03cf3bad76fb589591debb2dd67e0aa9834bea6925f6a4a2e0e60808201527fe39ed557db96902cd38ed14fad815115c786af479b7e8324736353433727170760a08201527fc976c13bb96e881cb166a933a55e490d9d56952b8d4e801485467d236242260660c08201527f753a6d1b65325d0c552a4d1345224105391a310b29122104190a11030902010060e0820152610100808201909252600160f81b6001600160801b68010000000000000000640100000000620100006010600460026000198c019081041790810417908104178881041790810417908104179081041790810417017e818283848586878898a8b8c8d8e8f929395969799a9b9d9e9faaeb6bedeeff0281900460ff039091015104600160ff1b909211020190565b905060006002821015620003c357506000620003ed565b620003ea6000620003e4600285620004ff60201b6200051f1790919060201c565b6200050d565b90505b6000620004106000620003e4600186620004ff60201b6200051f1790919060201c565b90506000816002546200042491906200069c565b62000431906001620006b2565b90506000620004506002836200055160201b6200052b1790919060201c565b905060006200046f6002846200055f60201b620005371790919060201c565b905060018110156200048457506001620004a1565b6200049e8282620004e860201b6200050a1790919060201c565b90505b6000620004d7620004c2600184620004ff60201b6200051f1790919060201c565b87620004e860201b6200050a1790919060201c565b9a9699509197509495505050505050565b6000620004f68284620006b2565b90505b92915050565b6000620004f682846200069c565b6000825b828110156200054a5762000527816002620007c5565b620005339083620006b2565b9150806200054181620007d3565b91505062000511565b5092915050565b6000620004f6828462000805565b6000620004f682846200081c565b80516001600160a01b03811681146200058557600080fd5b919050565b634e487b7160e01b600052604160045260246000fd5b6000806000610100808587031215620005b857600080fd5b845193506020620005cb8187016200056d565b935086605f870112620005dd57600080fd5b60405160c081016001600160401b03811182821017156200060257620006026200058a565b6040529186019180888411156200061857600080fd5b604088015b848110156200063f5762000631816200056d565b82529083019083016200061d565b50508093505050509250925092565b634e487b7160e01b600052603260045260246000fd5b634e487b7160e01b600052601160045260246000fd5b600060ff821660ff810362000693576200069362000664565b60010192915050565b81810381811115620004f957620004f962000664565b80820180821115620004f957620004f962000664565b600181815b8085111562000709578160001904821115620006ed57620006ed62000664565b80851615620006fb57918102915b93841c9390800290620006cd565b509250929050565b6000826200072257506001620004f9565b816200073157506000620004f9565b81600181146200074a5760028114620007555762000775565b6001915050620004f9565b60ff84111562000769576200076962000664565b50506001821b620004f9565b5060208310610133831016604e8410600b84101617156200079a575081810a620004f9565b620007a68383620006c8565b8060001904821115620007bd57620007bd62000664565b029392505050565b6000620004f6838362000711565b600060018201620007e857620007e862000664565b5060010190565b634e487b7160e01b600052601260045260246000fd5b600082620008175762000817620007ef565b500690565b6000826200082e576200082e620007ef565b500490565b60805160a051611080620008ad600039600081816102200152818161024d015281816104100152818161093a015281816109f001528181610a6b0152610ae601526000818161015d015281816103e9015281816108c80152818161090d015281816109c301528181610a3e0152610ab901526110806000f3fe608060405234801561001057600080fd5b50600436106100885760003560e01c80639a0fa3c01161005b5780639a0fa3c014610158578063cca76c5d1461017f578063d88f666b146101a8578063ffc0483d1461021b57600080fd5b80634420e4861461008d578063554d63c5146100a25780636f77926b146100be578063984da82e14610117575b600080fd5b6100a061009b366004610deb565b610242565b005b6100ab60025481565b6040519081526020015b60405180910390f35b6100d16100cc366004610deb565b610474565b6040516100b59190600060a08201905082518252602083015160208301526040830151151560408301526060830151606083015260808301511515608083015292915050565b610140610125366004610e1b565b6001602052600090815260409020546001600160a01b031681565b6040516001600160a01b0390911681526020016100b5565b6100ab7f000000000000000000000000000000000000000000000000000000000000000081565b61014061018d366004610e1b565b6000908152600160205260409020546001600160a01b031690565b6101ea6101b6366004610deb565b600060208190529081526040902080546001820154600283015460038401546004909401549293919260ff91821692911685565b6040516100b59594939291909485526020850193909352901515604084015260608301521515608082015260a00190565b6101407f000000000000000000000000000000000000000000000000000000000000000081565b336001600160a01b037f000000000000000000000000000000000000000000000000000000000000000016146102d8576040517f08c379a000000000000000000000000000000000000000000000000000000000815260206004820152601060248201527f6163636573732064656e69656420303200000000000000000000000000000000604482015260640160405180910390fd5b60008060006102e5610543565b6040805160a081018252600254815260208101859052600091810182905260608101849052600160808201529396509194509250829003610336576001604082015283156103365761033684610825565b6001600160a01b03851660009081526020818152604091829020835181559083015160018201559082015160028201805491151560ff19928316179055606083015160038301556080830151600490920180549215159290911691909117905561039f85610bd3565b600084815260016020526040908190205490517fdfac767c0000000000000000000000000000000000000000000000000000000081526001600160a01b03918216600482018190527f00000000000000000000000000000000000000000000000000000000000000006024830152917f0000000000000000000000000000000000000000000000000000000000000000169063dfac767c90604401600060405180830381600087803b15801561045457600080fd5b505af1158015610468573d6000803e3d6000fd5b50505050505050505050565b6104aa6040518060a001604052806000815260200160008152602001600015158152602001600081526020016000151581525090565b506001600160a01b031660009081526020818152604091829020825160a08101845281548152600182015492810192909252600281015460ff90811615159383019390935260038101546060830152600401549091161515608082015290565b60006105168284610e4a565b90505b92915050565b60006105168284610e5d565b60006105168284610e86565b60006105168284610e9a565b6000806000806107646105616002805461050a90919063ffffffff16565b604080517ff8f9cbfae6cc78fbefe7cdc3a1793dfcf4f0e8bbd8cec470b6a28a7a5a3e1efd81527ff5ecf1b3e9debc68e1d9cfabc5997135bfb7a7a3938b7b606b5b4b3f2f1f0ffe60208201527ff6e4ed9ff2d6b458eadcdf97bd91692de2d4da8fd2d0ac50c6ae9a8272523616818301527fc8c0b887b0a8a4489c948c7f847c6125746c645c544c444038302820181008ff60608201527ff7cae577eec2a03cf3bad76fb589591debb2dd67e0aa9834bea6925f6a4a2e0e60808201527fe39ed557db96902cd38ed14fad815115c786af479b7e8324736353433727170760a08201527fc976c13bb96e881cb166a933a55e490d9d56952b8d4e801485467d236242260660c08201527f753a6d1b65325d0c552a4d1345224105391a310b29122104190a11030902010060e08201526101008082019092527f0100000000000000000000000000000000000000000000000000000000000000600170010000000000000000000000000000000068010000000000000000640100000000620100006010600460026000198c019081041790810417908104178881041790810417908104179081041790810417017e818283848586878898a8b8c8d8e8f929395969799a9b9d9e9faaeb6bedeeff0281900460ff0390910151047f8000000000000000000000000000000000000000000000000000000000000000909211020190565b90506000600282101561077957506000610791565b61078e600061078984600261051f565b610ca8565b90505b60006107a28161078985600161051f565b90506000816002546107b49190610e5d565b6107bf906001610e4a565b905060006107ce82600261052b565b905060006107dd836002610537565b905060018110156107f0575060016107fd565b6107fa818361050a565b90505b600061081461080d83600161051f565b879061050a565b9a9699509197509495505050505050565b6000818152600160208181526040808420546001600160a01b031680855284835293819020815160a08101835281548152938101549284019290925260028083015460ff9081161515928501929092526003830154606085015260049092015416151560808301525b60058111610bcd57816040015115610bcd576020808301516000908152600190915260409020546001600160a01b031660038211610a9a577f000000000000000000000000000000000000000000000000000000000000000060000361099c576040516302e525d360e11b81526001600160a01b0382811660048301527f00000000000000000000000000000000000000000000000000000000000000006024830152600060448301527f000000000000000000000000000000000000000000000000000000000000000016906305ca4ba6906064015b600060405180830381600087803b15801561097f57600080fd5b505af1158015610993573d6000803e3d6000fd5b50505050610b50565b81600203610a1f576040516302e525d360e11b81526001600160a01b0382811660048301527f00000000000000000000000000000000000000000000000000000000000000006024830152600260448301527f000000000000000000000000000000000000000000000000000000000000000016906305ca4ba690606401610965565b6040516302e525d360e11b81526001600160a01b0382811660048301527f00000000000000000000000000000000000000000000000000000000000000006024830152600160448301527f000000000000000000000000000000000000000000000000000000000000000016906305ca4ba690606401610965565b6040516302e525d360e11b81526001600160a01b0382811660048301527f00000000000000000000000000000000000000000000000000000000000000006024830152600160448301527f000000000000000000000000000000000000000000000000000000000000000016906305ca4ba690606401600060405180830381600087803b158015610b2a57600080fd5b505af1158015610b3e573d6000803e3d6000fd5b5050505081600503610b505750610bcd565b50602091820151600090815260018084526040808320546001600160a01b0316835282855291829020825160a081018452815481529181015494820194909452600284015460ff90811615159282019290925260038401546060820152600490930154161515608083015280610bc581610eae565b91505061088e565b50505050565b60028054600090815260016020819052604090912080547fffffffffffffffffffffffff0000000000000000000000000000000000000000166001600160a01b0385161790559054610c249161050a565b600281905560408051808201909152600c81527f496e6469636573546f74616c00000000000000000000000000000000000000006020820152610c6691610ce4565b610ca56040518060400160405280600c81526020017f5f7573657241646472657373000000000000000000000000000000000000000081525082610d5b565b50565b6000825b82811015610cdd57610cbf816002610fab565b610cc99083610e4a565b915080610cd581610eae565b915050610cac565b5092915050565b610d578282604051602401610cfa929190610ffd565b60408051601f198184030181529190526020810180517bffffffffffffffffffffffffffffffffffffffffffffffffffffffff167f9710a9d000000000000000000000000000000000000000000000000000000000179052610dca565b5050565b610d578282604051602401610d7192919061101f565b60408051601f198184030181529190526020810180517bffffffffffffffffffffffffffffffffffffffffffffffffffffffff167f319af333000000000000000000000000000000000000000000000000000000001790525b80516a636f6e736f6c652e6c6f67602083016000808483855afa5050505050565b600060208284031215610dfd57600080fd5b81356001600160a01b0381168114610e1457600080fd5b9392505050565b600060208284031215610e2d57600080fd5b5035919050565b634e487b7160e01b600052601160045260246000fd5b8082018082111561051957610519610e34565b8181038181111561051957610519610e34565b634e487b7160e01b600052601260045260246000fd5b600082610e9557610e95610e70565b500690565b600082610ea957610ea9610e70565b500490565b600060018201610ec057610ec0610e34565b5060010190565b600181815b80851115610f02578160001904821115610ee857610ee8610e34565b80851615610ef557918102915b93841c9390800290610ecc565b509250929050565b600082610f1957506001610519565b81610f2657506000610519565b8160018114610f3c5760028114610f4657610f62565b6001915050610519565b60ff841115610f5757610f57610e34565b50506001821b610519565b5060208310610133831016604e8410600b8410161715610f85575081810a610519565b610f8f8383610ec7565b8060001904821115610fa357610fa3610e34565b029392505050565b60006105168383610f0a565b6000815180845260005b81811015610fdd57602081850181015186830182015201610fc1565b506000602082860101526020601f19601f83011685010191505092915050565b6040815260006110106040830185610fb7565b90508260208301529392505050565b6040815260006110326040830185610fb7565b90506001600160a01b0383166020830152939250505056fea2646970667358221220761140d1e20368378e0d9d643617108d12416f997b1e2c1b85126b74d407d9cf64736f6c63430008110033",
  "linkReferences": {},
  "deployedLinkReferences": {}
}