{
  "_format": "hh-sol-artifact-1",
  "contractName": "Core",
  "sourceName": "contracts/Core.sol",
  "abi": [
    {
      "inputs": [
        {
          "internalType": "address[6]",
          "name": "_sixFounders",
          "type": "address[6]"
        }
      ],
      "stateMutability": "payable",
      "type": "constructor"
    },
    {
      "anonymous": false,
      "inputs": [
        {
          "indexed": true,
          "internalType": "address",
          "name": "",
          "type": "address"
        },
        {
          "indexed": true,
          "internalType": "uint256",
          "name": "",
          "type": "uint256"
        }
      ],
      "name": "UserRegistered",
      "type": "event"
    },
    {
      "anonymous": false,
      "inputs": [
        {
          "indexed": true,
          "internalType": "address",
          "name": "",
          "type": "address"
        },
        {
          "indexed": true,
          "internalType": "uint256",
          "name": "",
          "type": "uint256"
        },
        {
          "indexed": true,
          "internalType": "uint256",
          "name": "",
          "type": "uint256"
        }
      ],
      "name": "UserUpdated",
      "type": "event"
    },
    {
      "stateMutability": "payable",
      "type": "fallback"
    },
    {
      "inputs": [
        {
          "internalType": "uint256",
          "name": "_matrixIndex",
          "type": "uint256"
        },
        {
          "internalType": "uint256",
          "name": "_userIndex",
          "type": "uint256"
        }
      ],
      "name": "getCoreUserByMatrixPosition",
      "outputs": [
        {
          "internalType": "address",
          "name": "userAddress",
          "type": "address"
        },
        {
          "components": [
            {
              "internalType": "uint256",
              "name": "claims",
              "type": "uint256"
            },
            {
              "internalType": "uint256",
              "name": "gifts",
              "type": "uint256"
            },
            {
              "internalType": "uint256",
              "name": "level",
              "type": "uint256"
            },
            {
              "internalType": "address",
              "name": "whose",
              "type": "address"
            },
            {
              "internalType": "bool",
              "name": "isValue",
              "type": "bool"
            }
          ],
          "internalType": "struct Core.UserGlobal",
          "name": "user",
          "type": "tuple"
        }
      ],
      "stateMutability": "view",
      "type": "function"
    },
    {
      "inputs": [
        {
          "internalType": "uint256",
          "name": "_level",
          "type": "uint256"
        }
      ],
      "name": "getLevelContract",
      "outputs": [
        {
          "internalType": "address",
          "name": "",
          "type": "address"
        }
      ],
      "stateMutability": "view",
      "type": "function"
    },
    {
      "inputs": [],
      "name": "getTenPercentOnceYear",
      "outputs": [],
      "stateMutability": "nonpayable",
      "type": "function"
    },
    {
      "inputs": [
        {
          "internalType": "address",
          "name": "_userAddress",
          "type": "address"
        }
      ],
      "name": "getUserFromCore",
      "outputs": [
        {
          "components": [
            {
              "internalType": "uint256",
              "name": "claims",
              "type": "uint256"
            },
            {
              "internalType": "uint256",
              "name": "gifts",
              "type": "uint256"
            },
            {
              "internalType": "uint256",
              "name": "level",
              "type": "uint256"
            },
            {
              "internalType": "address",
              "name": "whose",
              "type": "address"
            },
            {
              "internalType": "bool",
              "name": "isValue",
              "type": "bool"
            }
          ],
          "internalType": "struct Core.UserGlobal",
          "name": "user",
          "type": "tuple"
        }
      ],
      "stateMutability": "view",
      "type": "function"
    },
    {
      "inputs": [
        {
          "internalType": "uint256",
          "name": "_matrixIdx",
          "type": "uint256"
        },
        {
          "internalType": "address",
          "name": "_userWallet",
          "type": "address"
        }
      ],
      "name": "getUserFromMatrix",
      "outputs": [
        {
          "components": [
            {
              "internalType": "uint256",
              "name": "index",
              "type": "uint256"
            },
            {
              "internalType": "uint256",
              "name": "parent",
              "type": "uint256"
            },
            {
              "internalType": "bool",
              "name": "isRight",
              "type": "bool"
            },
            {
              "internalType": "uint256",
              "name": "plateau",
              "type": "uint256"
            },
            {
              "internalType": "bool",
              "name": "isValue",
              "type": "bool"
            }
          ],
          "internalType": "struct MatrixTemplate.User",
          "name": "user",
          "type": "tuple"
        }
      ],
      "stateMutability": "view",
      "type": "function"
    },
    {
      "inputs": [
        {
          "internalType": "address",
          "name": "_whose",
          "type": "address"
        }
      ],
      "name": "register",
      "outputs": [],
      "stateMutability": "payable",
      "type": "function"
    },
    {
      "inputs": [
        {
          "internalType": "address",
          "name": "_wallet",
          "type": "address"
        },
        {
          "internalType": "uint256",
          "name": "_matrixIndex",
          "type": "uint256"
        }
      ],
      "name": "sendHalf",
      "outputs": [],
      "stateMutability": "nonpayable",
      "type": "function"
    },
    {
      "inputs": [
        {
          "internalType": "address",
          "name": "_userAddress",
          "type": "address"
        },
        {
          "internalType": "uint256",
          "name": "_matrixIndex",
          "type": "uint256"
        },
        {
          "internalType": "uint256",
          "name": "_field",
          "type": "uint256"
        }
      ],
      "name": "updateUser",
      "outputs": [],
      "stateMutability": "nonpayable",
      "type": "function"
    },
    {
      "inputs": [
        {
          "internalType": "uint256",
          "name": "_amount",
          "type": "uint256"
        }
      ],
      "name": "withdrawClaim",
      "outputs": [],
      "stateMutability": "nonpayable",
      "type": "function"
    },
    {
      "stateMutability": "payable",
      "type": "receive"
    }
  ],
  "bytecode": "0x60a060405260018055604051620030e5380380620030e58339810160408190526200002a9162000224565b80516001600160a01b031660805260005b600681101562000153576000808211620000585750815162000081565b8262000066600184620002ea565b60068110620000795762000079620002be565b602002015190505b6040518060a00160405280600081526020016000815260200160138152602001826001600160a01b031681526020016001151581525060166000858560068110620000d057620000d0620002be565b602090810291909101516001600160a01b039081168352828201939093526040918201600020845181559084015160018201559083015160028201556060830151600390910180546080909401511515600160a01b026001600160a81b0319909416919092161791909117905550806200014a8162000306565b9150506200003b565b5060005b60138111620001ed5760008130846040516200017390620001f9565b620001819392919062000322565b604051809103906000f0801580156200019e573d6000803e3d6000fd5b5090508060028360148110620001b857620001b8620002be565b0180546001600160a01b0319166001600160a01b03929092169190911790555080620001e48162000306565b91505062000157565b50504260005562000375565b61170880620019dd83390190565b80516001600160a01b03811681146200021f57600080fd5b919050565b600060c082840312156200023757600080fd5b82601f8301126200024757600080fd5b60405160c081016001600160401b03811182821017156200027857634e487b7160e01b600052604160045260246000fd5b6040528060c08401858111156200028e57600080fd5b845b81811015620002b357620002a48162000207565b83526020928301920162000290565b509195945050505050565b634e487b7160e01b600052603260045260246000fd5b634e487b7160e01b600052601160045260246000fd5b81810381811115620003005762000300620002d4565b92915050565b6000600182016200031b576200031b620002d4565b5060010190565b8381526001600160a01b03838116602080840191909152610100830191604084018560005b60068110156200036857815184168352918401919084019060010162000347565b5050505050949350505050565b608051611637620003a6600039600081816103a8015281816106a5015281816107410152610a1401526116376000f3fe6080604052600436106100915760003560e01c80638212e2bb11610063578063a224dcb71161004b578063a224dcb714610211578063dfac767c14610231578063fb1359a31461025157005b80638212e2bb1461017357806390e7af8f146101d957005b806305ca4ba6146100f55780632c4d363a146101155780634420e4861461012a5780635f8e7d031461013d57005b366100f3576001546001146100dd5760405162461bcd60e51b815260206004820152600d60248201526c4e6f207265656e7472616e637960981b60448201526064015b60405180910390fd5b60026001556100ec333461027f565b6001808055005b005b34801561010157600080fd5b506100f3610110366004611322565b610530565b34801561012157600080fd5b506100f3610736565b6100f3610138366004611357565b61092e565b34801561014957600080fd5b5061015d610158366004611357565b610cc4565b60405161016a9190611374565b60405180910390f35b34801561017f57600080fd5b5061019361018e3660046113b8565b610d66565b60405161016a9190600060a08201905082518252602083015160208301526040830151151560408301526060830151606083015260808301511515608083015292915050565b3480156101e557600080fd5b506101f96101f43660046113e8565b610e3c565b6040516001600160a01b03909116815260200161016a565b34801561021d57600080fd5b506100f361022c3660046113e8565b610e62565b34801561023d57600080fd5b506100f361024c366004611401565b610fee565b34801561025d57600080fd5b5061027161026c36600461142d565b61110a565b60405161016a92919061144f565b6001600160a01b03821660009081526016602052604081206003015481908190600160a01b900460ff161561030e576001600160a01b0385166000908152601660205260409020546102d2908590611238565b6001600160a01b0386166000908152601660205260409020600201549093506102fc906001611238565b91506103078261124a565b905061031f565b5082915060009050662386f26fc100005b60138211610529575b80831061050d576001600160a01b038516600090815260166020526040902060030154600160a01b900460ff1615610381576001600160a01b038516600090815260166020526040902060028101839055839055610434565b6040805160a081018252848152600060208083018281528385018381526001600160a01b037f00000000000000000000000000000000000000000000000000000000000000008116606087019081526001608088018181528e84168852601690965297909520955186559151958501959095559351600284015590516003909201805491511515600160a01b0274ffffffffffffffffffffffffffffffffffffffffff1990921692909316919091171790555b60028260148110610447576104476114a2565b0154604051632210724360e11b81526001600160a01b03878116600483015290911690634420e48690602401600060405180830381600087803b15801561048d57600080fd5b505af11580156104a1573d6000803e3d6000fd5b50506040518492506001600160a01b03881691507fe29d35093005f4d575e1003753426b57a7f64378ba73332eef9c6ccc2b8decd690600090a38215610508576104eb838261128b565b92506104f8816002611297565b9050610505826001611238565b91505b610328565b6001600160a01b03851660009081526016602052604090208390555b5050505050565b610539336112a3565b6105855760405162461bcd60e51b815260206004820152600f60248201527f6163636573732064656e6965642031000000000000000000000000000000000060448201526064016100d4565b60006105908361124a565b90506000826000036105e3576001600160a01b0385166000908152601660205260409020600101546105c29083611238565b6001600160a01b038616600090815260166020526040902060010155610689565b82600103610630576001600160a01b03851660009081526016602052604090205461060e9083611238565b6001600160a01b03861660009081526016602052604090208190559050610689565b82600203610689576001600160a01b03808616600090815260166020526040808220600301549092168082529190205461066a9084611238565b6001600160a01b03909116600090815260166020526040902081905590505b6000610696836002611297565b90508082101580156106da57507f00000000000000000000000000000000000000000000000000000000000000006001600160a01b0316866001600160a01b031614155b80156106e65750601385105b156106f6576106f686600061027f565b8084876001600160a01b03167f97ce9d7086176d6da45e4e7999788176e2629a7591ffe505b0c1b13fe8052cc660405160405180910390a4505050505050565b336001600160a01b037f000000000000000000000000000000000000000000000000000000000000000016146107ae5760405162461bcd60e51b815260206004820152600f60248201527f6163636573732064656e6965642033000000000000000000000000000000000060448201526064016100d4565b47806107fc5760405162461bcd60e51b815260206004820152601060248201527f62616c616e636520697320656d7074790000000000000000000000000000000060448201526064016100d4565b60006108286018610822603c610822603c6108226000544261128b90919063ffffffff16565b90611301565b905061016d81101561087c5760405162461bcd60e51b815260206004820152600f60248201527f79656172206e6f7420706173736564000000000000000000000000000000000060448201526064016100d4565b600061088983600a611301565b604051909150600090339083908381818185875af1925050503d80600081146108ce576040519150601f19603f3d011682016040523d82523d6000602084013e6108d3565b606091505b50509050806109245760405162461bcd60e51b815260206004820152600d60248201527f53656e64696e672065727220350000000000000000000000000000000000000060448201526064016100d4565b5050426000555050565b6001546001146109705760405162461bcd60e51b815260206004820152600d60248201526c4e6f207265656e7472616e637960981b60448201526064016100d4565b600260015533600090815260166020526040902060030154600160a01b900460ff16156109df5760405162461bcd60e51b815260206004820152601760248201527f7573657220616c7265616479207265676973746572656400000000000000000060448201526064016100d4565b6001600160a01b038116600090815260166020526040812060030154600160a01b900460ff1615610a11575080610a34565b507f00000000000000000000000000000000000000000000000000000000000000005b6001600160a01b038116600090815260166020526040812060010154662386f26fc100001115610add57662386f26fc10000341015610ab55760405162461bcd60e51b815260206004820152601160248201527f6e6f7420656e6f75676820616d6f756e7400000000000000000000000000000060448201526064016100d4565b662386f26fc10000341115610ad857610ad534662386f26fc1000061128b565b90505b610b29565b6001600160a01b038216600090815260166020526040902060010154610b0a90662386f26fc1000061128b565b6001600160a01b03831660009081526016602052604090206001015550345b6040805160a081018252600080825260208083018281528385018381526001600160a01b03808916606087019081526001608088018181523388526016909652978620965187559251968601969096555160028086019190915590516003909401805492511515600160a01b0274ffffffffffffffffffffffffffffffffffffffffff199093169490951693909317179092550154604051632210724360e11b81523360048201526001600160a01b0390911690634420e48690602401600060405180830381600087803b158015610c0057600080fd5b505af1158015610c14573d6000803e3d6000fd5b505050506000811115610cbb57604051600090339083908381818185875af1925050503d8060008114610c63576040519150601f19603f3d011682016040523d82523d6000602084013e610c68565b606091505b5050905080610cb95760405162461bcd60e51b815260206004820152600d60248201527f53656e64696e672065727220330000000000000000000000000000000000000060448201526064016100d4565b505b50506001805550565b610d016040518060a0016040528060008152602001600081526020016000815260200160006001600160a01b031681526020016000151581525090565b506001600160a01b03908116600090815260166020908152604091829020825160a081018452815481526001820154928101929092526002810154928201929092526003909101549182166060820152600160a01b90910460ff161515608082015290565b610d9c6040518060a001604052806000815260200160008152602001600015158152602001600081526020016000151581525090565b60028360148110610daf57610daf6114a2565b01546040517f6f77926b0000000000000000000000000000000000000000000000000000000081526001600160a01b03848116600483015290911690636f77926b9060240160a060405180830381865afa158015610e11573d6000803e3d6000fd5b505050506040513d601f19601f82011682018060405250810190610e3591906114cd565b9392505050565b600060028260148110610e5157610e516114a2565b01546001600160a01b031692915050565b33600090815260166020526040902054811015610f3d5733600090815260166020526040902054610e93908261128b565b3360008181526016602052604080822093909355915183908381818185875af1925050503d8060008114610ee3576040519150601f19603f3d011682016040523d82523d6000602084013e610ee8565b606091505b5050905080610f395760405162461bcd60e51b815260206004820152600d60248201527f53656e64696e672065727220310000000000000000000000000000000000000060448201526064016100d4565b5050565b33600081815260166020526040808220805490839055905190929083908381818185875af1925050503d8060008114610f92576040519150601f19603f3d011682016040523d82523d6000602084013e610f97565b606091505b5050905080610fe85760405162461bcd60e51b815260206004820152600d60248201527f53656e64696e672065727220320000000000000000000000000000000000000060448201526064016100d4565b50505b50565b610ff7336112a3565b6110435760405162461bcd60e51b815260206004820152600f60248201527f6163636573732064656e6965642032000000000000000000000000000000000060448201526064016100d4565b6013811061104f575050565b600061105f60026108228461124a565b90506000836001600160a01b03168260405160006040518083038185875af1925050503d80600081146110ae576040519150601f19603f3d011682016040523d82523d6000602084013e6110b3565b606091505b50509050806111045760405162461bcd60e51b815260206004820152600d60248201527f53656e64696e672065727220340000000000000000000000000000000000000060448201526064016100d4565b50505050565b6040805160a081018252600080825260208201819052918101829052606081018290526080810182905260028460148110611147576111476114a2565b01546040517fcca76c5d000000000000000000000000000000000000000000000000000000008152600481018590526001600160a01b039091169063cca76c5d90602401602060405180830381865afa1580156111a8573d6000803e3d6000fd5b505050506040513d601f19601f820116820180604052508101906111cc9190611556565b6001600160a01b03818116600090815260166020908152604091829020825160a081018452815481526001820154928101929092526002810154928201929092526003909101549182166060820152600160a01b90910460ff1615156080820152909590945092505050565b6000610e358284611589565b92915050565b6000662386f26fc1000082156112445760005b8381101561128457611270826002611297565b91508061127c8161159c565b91505061125d565b5092915050565b6000610e3582846115b5565b6000610e3582846115c8565b6000805b60148110156112f857826001600160a01b0316600282601481106112cd576112cd6114a2565b01546001600160a01b0316036112e65750600192915050565b806112f08161159c565b9150506112a7565b50600092915050565b6000610e3582846115df565b6001600160a01b0381168114610feb57600080fd5b60008060006060848603121561133757600080fd5b83356113428161130d565b95602085013595506040909401359392505050565b60006020828403121561136957600080fd5b8135610e358161130d565b60a0810161124482848051825260208101516020830152604081015160408301526001600160a01b0360608201511660608301526080810151151560808301525050565b600080604083850312156113cb57600080fd5b8235915060208301356113dd8161130d565b809150509250929050565b6000602082840312156113fa57600080fd5b5035919050565b6000806040838503121561141457600080fd5b823561141f8161130d565b946020939093013593505050565b6000806040838503121561144057600080fd5b50508035926020909101359150565b6001600160a01b038316815260c08101610e3560208301848051825260208101516020830152604081015160408301526001600160a01b0360608201511660608301526080810151151560808301525050565b634e487b7160e01b600052603260045260246000fd5b805180151581146114c857600080fd5b919050565b600060a082840312156114df57600080fd5b60405160a0810181811067ffffffffffffffff8211171561151057634e487b7160e01b600052604160045260246000fd5b8060405250825181526020830151602082015261152f604084016114b8565b60408201526060830151606082015261154a608084016114b8565b60808201529392505050565b60006020828403121561156857600080fd5b8151610e358161130d565b634e487b7160e01b600052601160045260246000fd5b8082018082111561124457611244611573565b6000600182016115ae576115ae611573565b5060010190565b8181038181111561124457611244611573565b808202811582820484141761124457611244611573565b6000826115fc57634e487b7160e01b600052601260045260246000fd5b50049056fea26469706673582212205c4cc5a32f2878b80131c73af60413385dbc44d703d551ad7dd2589a4f8c971064736f6c6343000811003360c06040523480156200001157600080fd5b506040516200170838038062001708833981016040819052620000349162000586565b60005b60068160ff1610156200018e576000808062000052620001a8565b6040805160a08101825260018054825260208201869052600092820183905260608201859052608082015293965091945092508290036200009557600160408201525b80600080888860ff1660068110620000b157620000b162000634565b602090810291909101516001600160a01b0316825281810192909252604090810160002083518155918301516001808401919091559083015160028301805491151560ff19928316179055606084015160038401556080909301516004909201805492151592909316919091179091558660ff87166006811062000139576200013962000634565b6020908102919091015182546001810184556000938452919092200180546001600160a01b0319166001600160a01b039092169190911790555083925062000185915082905062000660565b91505062000037565b50506080919091526001600160a01b031660a05262000819565b60008060008062000390620001d26002600180549050620004ce60201b6200051a1790919060201c565b604080517ff8f9cbfae6cc78fbefe7cdc3a1793dfcf4f0e8bbd8cec470b6a28a7a5a3e1efd81527ff5ecf1b3e9debc68e1d9cfabc5997135bfb7a7a3938b7b606b5b4b3f2f1f0ffe60208201527ff6e4ed9ff2d6b458eadcdf97bd91692de2d4da8fd2d0ac50c6ae9a8272523616818301527fc8c0b887b0a8a4489c948c7f847c6125746c645c544c444038302820181008ff60608201527ff7cae577eec2a03cf3bad76fb589591debb2dd67e0aa9834bea6925f6a4a2e0e60808201527fe39ed557db96902cd38ed14fad815115c786af479b7e8324736353433727170760a08201527fc976c13bb96e881cb166a933a55e490d9d56952b8d4e801485467d236242260660c08201527f753a6d1b65325d0c552a4d1345224105391a310b29122104190a11030902010060e0820152610100808201909252600160f81b6001600160801b68010000000000000000640100000000620100006010600460026000198c019081041790810417908104178881041790810417908104179081041790810417017e818283848586878898a8b8c8d8e8f929395969799a9b9d9e9faaeb6bedeeff0281900460ff039091015104600160ff1b909211020190565b905060006002821015620003a757506000620003d1565b620003ce6000620003c8600285620004e560201b6200052f1790919060201c565b620004f3565b90505b6000620003f46000620003c8600186620004e560201b6200052f1790919060201c565b6001549091506000906200040a90839062000682565b6200041790600162000698565b90506000620004366002836200053760201b6200053b1790919060201c565b90506000620004556002846200054560201b620005471790919060201c565b905060018110156200046a5750600162000487565b620004848282620004ce60201b6200051a1790919060201c565b90505b6000620004bd620004a8600184620004e560201b6200052f1790919060201c565b87620004ce60201b6200051a1790919060201c565b9a9699509197509495505050505050565b6000620004dc828462000698565b90505b92915050565b6000620004dc828462000682565b6000825b8281101562000530576200050d816002620007ab565b62000519908362000698565b9150806200052781620007b9565b915050620004f7565b5092915050565b6000620004dc8284620007eb565b6000620004dc828462000802565b80516001600160a01b03811681146200056b57600080fd5b919050565b634e487b7160e01b600052604160045260246000fd5b60008060006101008085870312156200059e57600080fd5b845193506020620005b181870162000553565b935086605f870112620005c357600080fd5b60405160c081016001600160401b0381118282101715620005e857620005e862000570565b604052918601918088841115620005fe57600080fd5b604088015b848110156200062557620006178162000553565b825290830190830162000603565b50508093505050509250925092565b634e487b7160e01b600052603260045260246000fd5b634e487b7160e01b600052601160045260246000fd5b600060ff821660ff81036200067957620006796200064a565b60010192915050565b81810381811115620004df57620004df6200064a565b80820180821115620004df57620004df6200064a565b600181815b80851115620006ef578160001904821115620006d357620006d36200064a565b80851615620006e157918102915b93841c9390800290620006b3565b509250929050565b6000826200070857506001620004df565b816200071757506000620004df565b81600181146200073057600281146200073b576200075b565b6001915050620004df565b60ff8411156200074f576200074f6200064a565b50506001821b620004df565b5060208310610133831016604e8410600b841016171562000780575081810a620004df565b6200078c8383620006ae565b8060001904821115620007a357620007a36200064a565b029392505050565b6000620004dc8383620006f7565b600060018201620007ce57620007ce6200064a565b5060010190565b634e487b7160e01b600052601260045260246000fd5b600082620007fd57620007fd620007d5565b500690565b600082620008145762000814620007d5565b500490565b60805160a051610e83620008856000396000818161019f015281816103c40152818161097b01528181610a3101528181610aac0152610b2701526000818161039c015281816109090152818161094e01528181610a0401528181610a7f0152610afa0152610e836000f3fe608060405234801561001057600080fd5b50600436106100675760003560e01c8063984da82e11610050578063984da82e146100e3578063cca76c5d1461010e578063d88f666b1461012157600080fd5b80634420e4861461006c5780636f77926b14610081575b600080fd5b61007f61007a366004610c6b565b610194565b005b61009461008f366004610c6b565b61042a565b6040516100da9190600060a08201905082518252602083015160208301526040830151151560408301526060830151606083015260808301511515608083015292915050565b60405180910390f35b6100f66100f1366004610c9b565b6104c0565b6040516001600160a01b0390911681526020016100da565b6100f661011c366004610c9b565b6104ea565b61016361012f366004610c6b565b600060208190529081526040902080546001820154600283015460038401546004909401549293919260ff91821692911685565b6040516100da9594939291909485526020850193909352901515604084015260608301521515608082015260a00190565b336001600160a01b037f0000000000000000000000000000000000000000000000000000000000000000161461022a576040517f08c379a000000000000000000000000000000000000000000000000000000000815260206004820152601060248201527f6163636573732064656e69656420303200000000000000000000000000000000604482015260640160405180910390fd5b6000806000610237610553565b6040805160a081018252600180548252602082018690526000928201839052606082018590526080820152939650919450925082900361028757600160408201528315610287576102878461083b565b6001600160a01b03851660008181526020818152604080832085518155918501516001808401919091559085015160028301805491151560ff19928316179055606086015160038401556080860151600490930180549315159390911692909217909155805480820182558183527fb10e2d527612073b26eecdfd717e6a320cf44b4afac2b0732d9fcbe2b7fa0cf60180547fffffffffffffffffffffffff00000000000000000000000000000000000000001690931790925581549091908690811061035657610356610cb4565b6000918252602090912001546040517fdfac767c0000000000000000000000000000000000000000000000000000000081526001600160a01b03918216600482018190527f0000000000000000000000000000000000000000000000000000000000000000602483015292507f00000000000000000000000000000000000000000000000000000000000000009091169063dfac767c90604401600060405180830381600087803b15801561040a57600080fd5b505af115801561041e573d6000803e3d6000fd5b50505050505050505050565b6104606040518060a001604052806000815260200160008152602001600015158152602001600081526020016000151581525090565b506001600160a01b031660009081526020818152604091829020825160a08101845281548152600182015492810192909252600281015460ff90811615159383019390935260038101546060830152600401549091161515608082015290565b600181815481106104d057600080fd5b6000918252602090912001546001600160a01b0316905081565b6000600182815481106104ff576104ff610cb4565b6000918252602090912001546001600160a01b031692915050565b60006105268284610ce0565b90505b92915050565b60006105268284610cf3565b60006105268284610d1c565b60006105268284610d30565b600080600080610778610575600260018054905061051a90919063ffffffff16565b604080517ff8f9cbfae6cc78fbefe7cdc3a1793dfcf4f0e8bbd8cec470b6a28a7a5a3e1efd81527ff5ecf1b3e9debc68e1d9cfabc5997135bfb7a7a3938b7b606b5b4b3f2f1f0ffe60208201527ff6e4ed9ff2d6b458eadcdf97bd91692de2d4da8fd2d0ac50c6ae9a8272523616818301527fc8c0b887b0a8a4489c948c7f847c6125746c645c544c444038302820181008ff60608201527ff7cae577eec2a03cf3bad76fb589591debb2dd67e0aa9834bea6925f6a4a2e0e60808201527fe39ed557db96902cd38ed14fad815115c786af479b7e8324736353433727170760a08201527fc976c13bb96e881cb166a933a55e490d9d56952b8d4e801485467d236242260660c08201527f753a6d1b65325d0c552a4d1345224105391a310b29122104190a11030902010060e08201526101008082019092527f0100000000000000000000000000000000000000000000000000000000000000600170010000000000000000000000000000000068010000000000000000640100000000620100006010600460026000198c019081041790810417908104178881041790810417908104179081041790810417017e818283848586878898a8b8c8d8e8f929395969799a9b9d9e9faaeb6bedeeff0281900460ff0390910151047f8000000000000000000000000000000000000000000000000000000000000000909211020190565b90506000600282101561078d575060006107a5565b6107a2600061079d84600261052f565b610c2f565b90505b60006107b68161079d85600161052f565b6001549091506000906107ca908390610cf3565b6107d5906001610ce0565b905060006107e482600261053b565b905060006107f3836002610547565b9050600181101561080657506001610813565b610810818361051a565b90505b600061082a61082383600161052f565b879061051a565b9a9699509197509495505050505050565b60006001828154811061085057610850610cb4565b60009182526020808320909101546001600160a01b0316808352828252604092839020835160a0810185528154815260018201549381019390935260028082015460ff90811615159585019590955260038201546060850152600490910154909316151560808301529250905b60058111610c2957816040015115610c2957600060018360200151815481106108e8576108e8610cb4565b6000918252602090912001546001600160a01b0316905060038211610adb577f00000000000000000000000000000000000000000000000000000000000000006000036109dd576040516302e525d360e11b81526001600160a01b0382811660048301527f00000000000000000000000000000000000000000000000000000000000000006024830152600060448301527f000000000000000000000000000000000000000000000000000000000000000016906305ca4ba6906064015b600060405180830381600087803b1580156109c057600080fd5b505af11580156109d4573d6000803e3d6000fd5b50505050610b91565b81600203610a60576040516302e525d360e11b81526001600160a01b0382811660048301527f00000000000000000000000000000000000000000000000000000000000000006024830152600260448301527f000000000000000000000000000000000000000000000000000000000000000016906305ca4ba6906064016109a6565b6040516302e525d360e11b81526001600160a01b0382811660048301527f00000000000000000000000000000000000000000000000000000000000000006024830152600160448301527f000000000000000000000000000000000000000000000000000000000000000016906305ca4ba6906064016109a6565b6040516302e525d360e11b81526001600160a01b0382811660048301527f00000000000000000000000000000000000000000000000000000000000000006024830152600160448301527f000000000000000000000000000000000000000000000000000000000000000016906305ca4ba690606401600060405180830381600087803b158015610b6b57600080fd5b505af1158015610b7f573d6000803e3d6000fd5b5050505081600503610b915750610c29565b6000806001856020015181548110610bab57610bab610cb4565b60009182526020808320909101546001600160a01b031683528281019390935260409182019020815160a08101835281548152600182015493810193909352600281015460ff908116151592840192909252600381015460608401526004015416151560808201529250819050610c2181610d44565b9150506108bd565b50505050565b6000825b82811015610c6457610c46816002610e41565b610c509083610ce0565b915080610c5c81610d44565b915050610c33565b5092915050565b600060208284031215610c7d57600080fd5b81356001600160a01b0381168114610c9457600080fd5b9392505050565b600060208284031215610cad57600080fd5b5035919050565b634e487b7160e01b600052603260045260246000fd5b634e487b7160e01b600052601160045260246000fd5b8082018082111561052957610529610cca565b8181038181111561052957610529610cca565b634e487b7160e01b600052601260045260246000fd5b600082610d2b57610d2b610d06565b500690565b600082610d3f57610d3f610d06565b500490565b600060018201610d5657610d56610cca565b5060010190565b600181815b80851115610d98578160001904821115610d7e57610d7e610cca565b80851615610d8b57918102915b93841c9390800290610d62565b509250929050565b600082610daf57506001610529565b81610dbc57506000610529565b8160018114610dd25760028114610ddc57610df8565b6001915050610529565b60ff841115610ded57610ded610cca565b50506001821b610529565b5060208310610133831016604e8410600b8410161715610e1b575081810a610529565b610e258383610d5d565b8060001904821115610e3957610e39610cca565b029392505050565b60006105268383610da056fea26469706673582212202e3d315c0bae6b1179600518a984acb98899b8109da20466f7ad56ac92dec0eb64736f6c63430008110033",
  "linkReferences": {},
  "deployedLinkReferences": {}
}