{
  "_format": "hh-sol-artifact-1",
  "contractName": "Core",
  "sourceName": "contracts/Core.sol",
  "abi": [
    {
      "inputs": [
        {
          "internalType": "address[6]",
          "name": "_sixFounders",
          "type": "address[6]"
        }
      ],
      "stateMutability": "payable",
      "type": "constructor"
    },
    {
      "anonymous": false,
      "inputs": [
        {
          "indexed": false,
          "internalType": "address",
          "name": "",
          "type": "address"
        },
        {
          "indexed": false,
          "internalType": "uint256",
          "name": "",
          "type": "uint256"
        }
      ],
      "name": "UserRegistered",
      "type": "event"
    },
    {
      "anonymous": false,
      "inputs": [
        {
          "indexed": false,
          "internalType": "address",
          "name": "",
          "type": "address"
        },
        {
          "indexed": false,
          "internalType": "uint8",
          "name": "",
          "type": "uint8"
        },
        {
          "indexed": false,
          "internalType": "uint256",
          "name": "",
          "type": "uint256"
        }
      ],
      "name": "UserUpdated",
      "type": "event"
    },
    {
      "stateMutability": "payable",
      "type": "fallback"
    },
    {
      "inputs": [
        {
          "internalType": "uint256",
          "name": "_level",
          "type": "uint256"
        }
      ],
      "name": "getLevelContract",
      "outputs": [
        {
          "internalType": "address",
          "name": "",
          "type": "address"
        }
      ],
      "stateMutability": "view",
      "type": "function"
    },
    {
      "inputs": [],
      "name": "getTenPercentOnceYear",
      "outputs": [],
      "stateMutability": "nonpayable",
      "type": "function"
    },
    {
      "inputs": [
        {
          "internalType": "address",
          "name": "_userAddress",
          "type": "address"
        }
      ],
      "name": "getUserFromCore",
      "outputs": [
        {
          "components": [
            {
              "internalType": "uint256",
              "name": "claims",
              "type": "uint256"
            },
            {
              "internalType": "uint256",
              "name": "gifts",
              "type": "uint256"
            },
            {
              "internalType": "uint256",
              "name": "level",
              "type": "uint256"
            },
            {
              "internalType": "address",
              "name": "whose",
              "type": "address"
            },
            {
              "internalType": "bool",
              "name": "isValue",
              "type": "bool"
            }
          ],
          "internalType": "struct Core.UserGlobal",
          "name": "user",
          "type": "tuple"
        }
      ],
      "stateMutability": "view",
      "type": "function"
    },
    {
      "inputs": [
        {
          "internalType": "uint256",
          "name": "_matrixIdx",
          "type": "uint256"
        },
        {
          "internalType": "address",
          "name": "_userWallet",
          "type": "address"
        }
      ],
      "name": "getUserFromMatrix",
      "outputs": [
        {
          "components": [
            {
              "internalType": "uint256",
              "name": "index",
              "type": "uint256"
            },
            {
              "internalType": "uint256",
              "name": "parent",
              "type": "uint256"
            },
            {
              "internalType": "bool",
              "name": "isRight",
              "type": "bool"
            },
            {
              "internalType": "uint256",
              "name": "plateau",
              "type": "uint256"
            },
            {
              "internalType": "bool",
              "name": "isValue",
              "type": "bool"
            }
          ],
          "internalType": "struct MatrixTemplate.User",
          "name": "user",
          "type": "tuple"
        }
      ],
      "stateMutability": "view",
      "type": "function"
    },
    {
      "inputs": [],
      "name": "payUnit",
      "outputs": [
        {
          "internalType": "uint256",
          "name": "",
          "type": "uint256"
        }
      ],
      "stateMutability": "view",
      "type": "function"
    },
    {
      "inputs": [
        {
          "internalType": "address",
          "name": "_whose",
          "type": "address"
        }
      ],
      "name": "register",
      "outputs": [],
      "stateMutability": "payable",
      "type": "function"
    },
    {
      "inputs": [
        {
          "internalType": "address",
          "name": "_wallet",
          "type": "address"
        },
        {
          "internalType": "uint256",
          "name": "_matrixIndex",
          "type": "uint256"
        }
      ],
      "name": "sendHalf",
      "outputs": [],
      "stateMutability": "nonpayable",
      "type": "function"
    },
    {
      "inputs": [
        {
          "internalType": "address",
          "name": "_userAddress",
          "type": "address"
        },
        {
          "internalType": "uint256",
          "name": "_matrixIndex",
          "type": "uint256"
        },
        {
          "internalType": "uint8",
          "name": "_field",
          "type": "uint8"
        }
      ],
      "name": "updateUser",
      "outputs": [],
      "stateMutability": "nonpayable",
      "type": "function"
    },
    {
      "inputs": [
        {
          "internalType": "uint256",
          "name": "_amount",
          "type": "uint256"
        }
      ],
      "name": "withdrawClaim",
      "outputs": [],
      "stateMutability": "nonpayable",
      "type": "function"
    },
    {
      "stateMutability": "payable",
      "type": "receive"
    }
  ],
  "bytecode": "0x6080604052662386f26fc100006000556013600155600160195560405162002c1838038062002c188339810160408190526200003b916200024a565b8051601680546001600160a01b0319166001600160a01b0390921691909117905560005b6006811015620001785760008082116200007c57508151620000a5565b826200008a60018462000310565b600681106200009d576200009d620002e4565b602002015190505b6040518060a0016040528060008152602001600081526020016001548152602001826001600160a01b031681526020016001151581525060176000858560068110620000f557620000f5620002e4565b602090810291909101516001600160a01b039081168352828201939093526040918201600020845181559084015160018201559083015160028201556060830151600390910180546080909401511515600160a01b026001600160a81b0319909416919092161791909117905550806200016f816200032c565b9150506200005f565b5060005b60015481116200021357600081308460405162000199906200021f565b620001a79392919062000348565b604051809103906000f080158015620001c4573d6000803e3d6000fd5b5090508060028360148110620001de57620001de620002e4565b0180546001600160a01b0319166001600160a01b039290921691909117905550806200020a816200032c565b9150506200017c565b5050426018556200039b565b61142280620017f683390190565b80516001600160a01b03811681146200024557600080fd5b919050565b600060c082840312156200025d57600080fd5b82601f8301126200026d57600080fd5b60405160c081016001600160401b03811182821017156200029e57634e487b7160e01b600052604160045260246000fd5b6040528060c0840185811115620002b457600080fd5b845b81811015620002d957620002ca816200022d565b835260209283019201620002b6565b509195945050505050565b634e487b7160e01b600052603260045260246000fd5b634e487b7160e01b600052601160045260246000fd5b81810381811115620003265762000326620002fa565b92915050565b600060018201620003415762000341620002fa565b5060010190565b8381526001600160a01b03838116602080840191909152610100830191604084018560005b60068110156200038e5781518416835291840191908401906001016200036d565b5050505050949350505050565b61144b80620003ab6000396000f3fe6080604052600436106100915760003560e01c806390e7af8f11610063578063a224dcb71161004b578063a224dcb714610267578063c92cbc8b14610287578063dfac767c146102a757005b806390e7af8f1461020b57806394328eab1461024357005b80632c4d363a146101075780634420e4861461011c5780635f8e7d031461012f5780638212e2bb146101a557005b36610105576019546001146100ed5760405162461bcd60e51b815260206004820152601560248201527f4e6f207265656e7472616e63792061747461636b21000000000000000000000060448201526064015b60405180910390fd5b60026019556100fc33346102c7565b60016019819055005b005b34801561011357600080fd5b50610105610561565b61010561012a366004611208565b61073b565b34801561013b57600080fd5b5061014f61014a366004611208565b610ad9565b60405161019c9190600060a0820190508251825260208301516020830152604083015160408301526001600160a01b03606084015116606083015260808301511515608083015292915050565b60405180910390f35b3480156101b157600080fd5b506101c56101c0366004611223565b610b7b565b60405161019c9190600060a08201905082518252602083015160208301526040830151151560408301526060830151606083015260808301511515608083015292915050565b34801561021757600080fd5b5061022b61022636600461124f565b610c51565b6040516001600160a01b03909116815260200161019c565b34801561024f57600080fd5b5061025960005481565b60405190815260200161019c565b34801561027357600080fd5b5061010561028236600461124f565b610c77565b34801561029357600080fd5b506101056102a2366004611268565b610e02565b3480156102b357600080fd5b506101056102c23660046112ae565b611001565b6001600160a01b03821660009081526017602052604081206003015481908190600160a01b900460ff1615610356576001600160a01b03851660009081526017602052604090205461031a90859061111d565b6001600160a01b03861660009081526017602052604090206002015490935061034490600161111d565b915061034f8261112f565b9050610360565b5050600080548392505b6013821161055a575b80831061053e576001600160a01b038516600090815260176020526040902060030154600160a01b900460ff16156103c2576001600160a01b038516600090815260176020526040902060028101839055839055610458565b6040805160a081018252848152600060208083018281528385018381526016546001600160a01b03908116606087019081526001608088018181528e84168852601790965297909520955186559151958501959095559351600284015590516003909201805491511515600160a01b0274ffffffffffffffffffffffffffffffffffffffffff1990921692909316919091171790555b6002826014811061046b5761046b6112d8565b0154604051632210724360e11b81526001600160a01b03878116600483015290911690634420e48690602401600060405180830381600087803b1580156104b157600080fd5b505af11580156104c5573d6000803e3d6000fd5b5050604080516001600160a01b0389168152602081018690527fe29d35093005f4d575e1003753426b57a7f64378ba73332eef9c6ccc2b8decd6935001905060405180910390a182156105395761051c838261116a565b9250610529816002611176565b905061053682600161111d565b91505b610369565b6001600160a01b03851660009081526017602052604090208390555b5050505050565b6016546001600160a01b031633146105bb5760405162461bcd60e51b815260206004820152601f60248201527f796f7520686176656e27742072696768747320666f722077697468647261770060448201526064016100e4565b47806106095760405162461bcd60e51b815260206004820152601060248201527f62616c616e636520697320656d7074790000000000000000000000000000000060448201526064016100e4565b6000610635601861062f603c61062f603c61062f6018544261116a90919063ffffffff16565b90611182565b905061016d8110156106895760405162461bcd60e51b815260206004820152601960248201527f61207965617220686173206e6f7420796574207061737365640000000000000060448201526064016100e4565b600061069683600a611182565b604051909150600090339083908381818185875af1925050503d80600081146106db576040519150601f19603f3d011682016040523d82523d6000602084013e6106e0565b606091505b50509050806107315760405162461bcd60e51b815260206004820152601460248201527f4661696c656420746f2073656e6420424e42203500000000000000000000000060448201526064016100e4565b5050426018555050565b60195460011461078d5760405162461bcd60e51b815260206004820152601560248201527f4e6f207265656e7472616e63792061747461636b21000000000000000000000060448201526064016100e4565b600260195533600090815260176020526040902060030154600160a01b900460ff16156107fc5760405162461bcd60e51b815260206004820152601760248201527f7573657220616c7265616479207265676973746572656400000000000000000060448201526064016100e4565b6001600160a01b038116600090815260176020526040812060030154600160a01b900460ff161561082e57508061083c565b506016546001600160a01b03165b600080546001600160a01b03831682526017602052604082206001015410156108f7576000543410156108d75760405162461bcd60e51b815260206004820152602b60248201527f796f752070616964206c657373207468616e2074686520636f7374206f66207260448201527f6567697374726174696f6e00000000000000000000000000000000000000000060648201526084016100e4565b6000543411156108f2576000546108ef90349061116a565b90505b61093d565b600080546001600160a01b0384168252601760205260409091206001015461091e9161116a565b6001600160a01b03831660009081526017602052604090206001015550345b6040805160a081018252600080825260208083018281528385018381526001600160a01b03808916606087019081526001608088018181523388526017909652978620965187559251968601969096555160028086019190915590516003909401805492511515600160a01b0274ffffffffffffffffffffffffffffffffffffffffff199093169490951693909317179092550154604051632210724360e11b81523360048201526001600160a01b0390911690634420e48690602401600060405180830381600087803b158015610a1457600080fd5b505af1158015610a28573d6000803e3d6000fd5b505050506000811115610acf57604051600090339083908381818185875af1925050503d8060008114610a77576040519150601f19603f3d011682016040523d82523d6000602084013e610a7c565b606091505b5050905080610acd5760405162461bcd60e51b815260206004820152601460248201527f4661696c656420746f2073656e6420424e42203300000000000000000000000060448201526064016100e4565b505b5050600160195550565b610b166040518060a0016040528060008152602001600081526020016000815260200160006001600160a01b031681526020016000151581525090565b506001600160a01b03908116600090815260176020908152604091829020825160a081018452815481526001820154928101929092526002810154928201929092526003909101549182166060820152600160a01b90910460ff161515608082015290565b610bb16040518060a001604052806000815260200160008152602001600015158152602001600081526020016000151581525090565b60028360148110610bc457610bc46112d8565b01546040517f6f77926b0000000000000000000000000000000000000000000000000000000081526001600160a01b03848116600483015290911690636f77926b9060240160a060405180830381865afa158015610c26573d6000803e3d6000fd5b505050506040513d601f19601f82011682018060405250810190610c4a91906112fe565b9392505050565b600060028260148110610c6657610c666112d8565b01546001600160a01b031692915050565b33600090815260176020526040902054811015610d525733600090815260176020526040902054610ca8908261116a565b3360008181526017602052604080822093909355915183908381818185875af1925050503d8060008114610cf8576040519150601f19603f3d011682016040523d82523d6000602084013e610cfd565b606091505b5050905080610d4e5760405162461bcd60e51b815260206004820152601460248201527f4661696c656420746f2073656e6420424e42203100000000000000000000000060448201526064016100e4565b5050565b33600081815260176020526040808220805490839055905190929083908381818185875af1925050503d8060008114610da7576040519150601f19603f3d011682016040523d82523d6000602084013e610dac565b606091505b5050905080610dfd5760405162461bcd60e51b815260206004820152601460248201527f4661696c656420746f2073656e6420424e42203200000000000000000000000060448201526064016100e4565b505050565b610e0b3361118e565b610e575760405162461bcd60e51b815260206004820152601060248201527f6163636573732064656e6965642030310000000000000000000000000000000060448201526064016100e4565b6000610e628361112f565b905060008260ff16600003610eb8576001600160a01b038516600090815260176020526040902060010154610e97908361111d565b6001600160a01b038616600090815260176020526040902060010155610f64565b8260ff16600103610f08576001600160a01b038516600090815260176020526040902054610ee6908361111d565b6001600160a01b03861660009081526017602052604090208190559050610f64565b8260ff16600203610f64576001600160a01b038086166000908152601760205260408082206003015490921680825291902054610f45908461111d565b6001600160a01b03909116600090815260176020526040902081905590505b6000610f71836002611176565b9050808210158015610f9157506016546001600160a01b03878116911614155b8015610f9d5750601385105b15610fad57610fad8660006102c7565b604080516001600160a01b038816815260ff861660208201529081018290527f5bb010dc69d7527dd8427d347a09974d8085a9e2874e9eb9bd28fb234145c3e89060600160405180910390a1505050505050565b61100a3361118e565b6110565760405162461bcd60e51b815260206004820181905260248201527f6163636573732064656e69656420666f7220433a3a5f73656e6448616c66282960448201526064016100e4565b60138110611062575050565b6000611072600261062f8461112f565b90506000836001600160a01b03168260405160006040518083038185875af1925050503d80600081146110c1576040519150601f19603f3d011682016040523d82523d6000602084013e6110c6565b606091505b50509050806111175760405162461bcd60e51b815260206004820152601460248201527f4661696c656420746f2073656e6420424e42203400000000000000000000000060448201526064016100e4565b50505050565b6000610c4a828461139d565b92915050565b6000805482156111295760005b838110156111635761114f826002611176565b91508061115b816113b0565b91505061113c565b5092915050565b6000610c4a82846113c9565b6000610c4a82846113dc565b6000610c4a82846113f3565b6000805b60148110156111e357826001600160a01b0316600282601481106111b8576111b86112d8565b01546001600160a01b0316036111d15750600192915050565b806111db816113b0565b915050611192565b50600092915050565b80356001600160a01b038116811461120357600080fd5b919050565b60006020828403121561121a57600080fd5b610c4a826111ec565b6000806040838503121561123657600080fd5b82359150611246602084016111ec565b90509250929050565b60006020828403121561126157600080fd5b5035919050565b60008060006060848603121561127d57600080fd5b611286846111ec565b925060208401359150604084013560ff811681146112a357600080fd5b809150509250925092565b600080604083850312156112c157600080fd5b6112ca836111ec565b946020939093013593505050565b634e487b7160e01b600052603260045260246000fd5b8051801515811461120357600080fd5b600060a0828403121561131057600080fd5b60405160a0810181811067ffffffffffffffff8211171561134157634e487b7160e01b600052604160045260246000fd5b80604052508251815260208301516020820152611360604084016112ee565b60408201526060830151606082015261137b608084016112ee565b60808201529392505050565b634e487b7160e01b600052601160045260246000fd5b8082018082111561112957611129611387565b6000600182016113c2576113c2611387565b5060010190565b8181038181111561112957611129611387565b808202811582820484141761112957611129611387565b60008261141057634e487b7160e01b600052601260045260246000fd5b50049056fea2646970667358221220e8dc08edb3704ae66bb15882f4d342bd69ca0234e868bc4f080a18ff7f2400b064736f6c6343000811003360806040523480156200001157600080fd5b506040516200142238038062001422833981016040819052620000349162000599565b60005b60068160ff1610156200018e576000808062000052620001bb565b6040805160a0810182526003548152602081018590526000918101829052606081018490526001608082015293965091945092508290036200009657600160408201525b8060026000888860ff1660068110620000b357620000b362000647565b602090810291909101516001600160a01b031682528181019290925260409081016000208351815591830151600183015582015160028201805491151560ff19928316179055606083015160038084019190915560809093015160049092018054921515929091169190911790558660ff87166006811062000139576200013962000647565b6020908102919091015182546001810184556000938452919092200180546001600160a01b0319166001600160a01b039092169190911790555083925062000185915082905062000673565b91505062000037565b5050600091909155600180546001600160a01b0319166001600160a01b039092169190911790556200082c565b600080600080620003a3620001e56002600380549050620004e160201b620003901790919060201c565b604080517ff8f9cbfae6cc78fbefe7cdc3a1793dfcf4f0e8bbd8cec470b6a28a7a5a3e1efd81527ff5ecf1b3e9debc68e1d9cfabc5997135bfb7a7a3938b7b606b5b4b3f2f1f0ffe60208201527ff6e4ed9ff2d6b458eadcdf97bd91692de2d4da8fd2d0ac50c6ae9a8272523616818301527fc8c0b887b0a8a4489c948c7f847c6125746c645c544c444038302820181008ff60608201527ff7cae577eec2a03cf3bad76fb589591debb2dd67e0aa9834bea6925f6a4a2e0e60808201527fe39ed557db96902cd38ed14fad815115c786af479b7e8324736353433727170760a08201527fc976c13bb96e881cb166a933a55e490d9d56952b8d4e801485467d236242260660c08201527f753a6d1b65325d0c552a4d1345224105391a310b29122104190a11030902010060e0820152610100808201909252600160f81b6001600160801b68010000000000000000640100000000620100006010600460026000198c019081041790810417908104178881041790810417908104179081041790810417017e818283848586878898a8b8c8d8e8f929395969799a9b9d9e9faaeb6bedeeff0281900460ff039091015104600160ff1b909211020190565b905060006002821015620003ba57506000620003e4565b620003e16000620003db600285620004f860201b620003a51790919060201c565b62000506565b90505b6000620004076000620003db600186620004f860201b620003a51790919060201c565b6003549091506000906200041d90839062000695565b6200042a906001620006ab565b90506000620004496002836200054a60201b620003b11790919060201c565b90506000620004686002846200055860201b620003bd1790919060201c565b905060018110156200047d575060016200049a565b620004978282620004e160201b620003901790919060201c565b90505b6000620004d0620004bb600184620004f860201b620003a51790919060201c565b87620004e160201b620003901790919060201c565b9a9699509197509495505050505050565b6000620004ef8284620006ab565b90505b92915050565b6000620004ef828462000695565b6000825b82811015620005435762000520816002620007be565b6200052c9083620006ab565b9150806200053a81620007cc565b9150506200050a565b5092915050565b6000620004ef8284620007fe565b6000620004ef828462000815565b80516001600160a01b03811681146200057e57600080fd5b919050565b634e487b7160e01b600052604160045260246000fd5b6000806000610100808587031215620005b157600080fd5b845193506020620005c481870162000566565b935086605f870112620005d657600080fd5b60405160c081016001600160401b0381118282101715620005fb57620005fb62000583565b6040529186019180888411156200061157600080fd5b604088015b8481101562000638576200062a8162000566565b825290830190830162000616565b50508093505050509250925092565b634e487b7160e01b600052603260045260246000fd5b634e487b7160e01b600052601160045260246000fd5b600060ff821660ff81036200068c576200068c6200065d565b60010192915050565b81810381811115620004f257620004f26200065d565b80820180821115620004f257620004f26200065d565b600181815b8085111562000702578160001904821115620006e657620006e66200065d565b80851615620006f457918102915b93841c9390800290620006c6565b509250929050565b6000826200071b57506001620004f2565b816200072a57506000620004f2565b81600181146200074357600281146200074e576200076e565b6001915050620004f2565b60ff8411156200076257620007626200065d565b50506001821b620004f2565b5060208310610133831016604e8410600b841016171562000793575081810a620004f2565b6200079f8383620006c1565b8060001904821115620007b657620007b66200065d565b029392505050565b6000620004ef83836200070a565b600060018201620007e157620007e16200065d565b5060010190565b634e487b7160e01b600052601260045260246000fd5b600082620008105762000810620007e8565b500690565b600082620008275762000827620007e8565b500490565b610be6806200083c6000396000f3fe608060405234801561001057600080fd5b50600436106100365760003560e01c80634420e4861461003b5780636f77926b14610050575b600080fd5b61004e6100493660046109e7565b6100b2565b005b61006361005e3660046109e7565b6102f7565b6040516100a99190600060a08201905082518252602083015160208301526040830151151560408301526060830151606083015260808301511515608083015292915050565b60405180910390f35b6001546001600160a01b0316331461012a576040517f08c379a000000000000000000000000000000000000000000000000000000000815260206004820152601060248201527f6163636573732064656e69656420303200000000000000000000000000000000604482015260640160405180910390fd5b60008060006101376103c9565b6040805160a0810182526003548152602081018590526000918101829052606081018490526001608082015293965091945092508290036101885760016040820152831561018857610188846106b1565b6001600160a01b0385166000818152600260208181526040808420865181559186015160018084019190915590860151928201805493151560ff1994851617905560608601516003808401919091556080870151600490930180549315159390941692909217909255805491820181558083527fc2575a0e9e593c00f959f8c92f12db2869c3395a3b0502d05e2516446f71f85b90910180547fffffffffffffffffffffffff00000000000000000000000000000000000000001690931790925581549091908690811061025e5761025e610a17565b600091825260208220015460015491546040517fdfac767c0000000000000000000000000000000000000000000000000000000081526001600160a01b0392831660048201819052602482019290925290935091169063dfac767c90604401600060405180830381600087803b1580156102d757600080fd5b505af11580156102eb573d6000803e3d6000fd5b50505050505050505050565b61032d6040518060a001604052806000815260200160008152602001600015158152602001600081526020016000151581525090565b506001600160a01b0316600090815260026020818152604092839020835160a081018552815481526001820154928101929092529182015460ff908116151593820193909352600382015460608201526004909101549091161515608082015290565b600061039c8284610a43565b90505b92915050565b600061039c8284610a56565b600061039c8284610a7f565b600061039c8284610a93565b6000806000806105ee6103eb600260038054905061039090919063ffffffff16565b604080517ff8f9cbfae6cc78fbefe7cdc3a1793dfcf4f0e8bbd8cec470b6a28a7a5a3e1efd81527ff5ecf1b3e9debc68e1d9cfabc5997135bfb7a7a3938b7b606b5b4b3f2f1f0ffe60208201527ff6e4ed9ff2d6b458eadcdf97bd91692de2d4da8fd2d0ac50c6ae9a8272523616818301527fc8c0b887b0a8a4489c948c7f847c6125746c645c544c444038302820181008ff60608201527ff7cae577eec2a03cf3bad76fb589591debb2dd67e0aa9834bea6925f6a4a2e0e60808201527fe39ed557db96902cd38ed14fad815115c786af479b7e8324736353433727170760a08201527fc976c13bb96e881cb166a933a55e490d9d56952b8d4e801485467d236242260660c08201527f753a6d1b65325d0c552a4d1345224105391a310b29122104190a11030902010060e08201526101008082019092527f0100000000000000000000000000000000000000000000000000000000000000600170010000000000000000000000000000000068010000000000000000640100000000620100006010600460026000198c019081041790810417908104178881041790810417908104179081041790810417017e818283848586878898a8b8c8d8e8f929395969799a9b9d9e9faaeb6bedeeff0281900460ff0390910151047f8000000000000000000000000000000000000000000000000000000000000000909211020190565b9050600060028210156106035750600061061b565b61061860006106138460026103a5565b6109ab565b90505b600061062c816106138560016103a5565b600354909150600090610640908390610a56565b61064b906001610a43565b9050600061065a8260026103b1565b905060006106698360026103bd565b9050600181101561067c57506001610689565b6106868183610390565b90505b60006106a06106998360016103a5565b8790610390565b9a9699509197509495505050505050565b6000600382815481106106c6576106c6610a17565b60009182526020808320909101546001600160a01b03168083526002808352604093849020845160a081018652815481526001820154948101949094528082015460ff9081161515958501959095526003810154606085015260040154909316151560808301529250905b600581116109a5578160400151156109a5576000600383602001518154811061075c5761075c610a17565b6000918252602090912001546001600160a01b031690506003821161088d576000546000036107fe576001546000805460405163c92cbc8b60e01b81526001600160a01b038581166004830152602482019290925260448101929092529091169063c92cbc8b906064015b600060405180830381600087803b1580156107e157600080fd5b505af11580156107f5573d6000803e3d6000fd5b5050505061090c565b816002036108495760015460005460405163c92cbc8b60e01b81526001600160a01b03848116600483015260248201929092526002604482015291169063c92cbc8b906064016107c7565b6001805460005460405163c92cbc8b60e01b81526001600160a01b03858116600483015260248201929092526044810193909352169063c92cbc8b906064016107c7565b6001805460005460405163c92cbc8b60e01b81526001600160a01b03858116600483015260248201929092526044810193909352169063c92cbc8b90606401600060405180830381600087803b1580156108e657600080fd5b505af11580156108fa573d6000803e3d6000fd5b505050508160050361090c57506109a5565b60026000600385602001518154811061092757610927610a17565b60009182526020808320909101546001600160a01b031683528281019390935260409182019020815160a08101835281548152600182015493810193909352600281015460ff90811615159284019290925260038101546060840152600401541615156080820152925081905061099d81610aa7565b915050610731565b50505050565b6000825b828110156109e0576109c2816002610ba4565b6109cc9083610a43565b9150806109d881610aa7565b9150506109af565b5092915050565b6000602082840312156109f957600080fd5b81356001600160a01b0381168114610a1057600080fd5b9392505050565b634e487b7160e01b600052603260045260246000fd5b634e487b7160e01b600052601160045260246000fd5b8082018082111561039f5761039f610a2d565b8181038181111561039f5761039f610a2d565b634e487b7160e01b600052601260045260246000fd5b600082610a8e57610a8e610a69565b500690565b600082610aa257610aa2610a69565b500490565b600060018201610ab957610ab9610a2d565b5060010190565b600181815b80851115610afb578160001904821115610ae157610ae1610a2d565b80851615610aee57918102915b93841c9390800290610ac5565b509250929050565b600082610b125750600161039f565b81610b1f5750600061039f565b8160018114610b355760028114610b3f57610b5b565b600191505061039f565b60ff841115610b5057610b50610a2d565b50506001821b61039f565b5060208310610133831016604e8410600b8410161715610b7e575081810a61039f565b610b888383610ac0565b8060001904821115610b9c57610b9c610a2d565b029392505050565b600061039c8383610b0356fea2646970667358221220db86ee9312ff914e04d29f7c7928a45bf94c491012d54de092f20c9ef456128664736f6c63430008110033",
  "linkReferences": {},
  "deployedLinkReferences": {}
}