{
  "_format": "hh-sol-artifact-1",
  "contractName": "Core",
  "sourceName": "contracts/Core.sol",
  "abi": [
    {
      "inputs": [
        {
          "internalType": "address[6]",
          "name": "_sixFounders",
          "type": "address[6]"
        }
      ],
      "stateMutability": "payable",
      "type": "constructor"
    },
    {
      "anonymous": false,
      "inputs": [
        {
          "indexed": true,
          "internalType": "address",
          "name": "",
          "type": "address"
        },
        {
          "indexed": true,
          "internalType": "uint256",
          "name": "",
          "type": "uint256"
        }
      ],
      "name": "UserRegistered",
      "type": "event"
    },
    {
      "anonymous": false,
      "inputs": [
        {
          "indexed": true,
          "internalType": "address",
          "name": "",
          "type": "address"
        },
        {
          "indexed": true,
          "internalType": "uint256",
          "name": "",
          "type": "uint256"
        },
        {
          "indexed": true,
          "internalType": "uint256",
          "name": "",
          "type": "uint256"
        }
      ],
      "name": "UserUpdated",
      "type": "event"
    },
    {
      "stateMutability": "payable",
      "type": "fallback"
    },
    {
      "inputs": [],
      "name": "AddressesGlobalTotal",
      "outputs": [
        {
          "internalType": "uint256",
          "name": "",
          "type": "uint256"
        }
      ],
      "stateMutability": "view",
      "type": "function"
    },
    {
      "inputs": [
        {
          "internalType": "uint256",
          "name": "_matrixIndex",
          "type": "uint256"
        },
        {
          "internalType": "uint256",
          "name": "_userIndex",
          "type": "uint256"
        }
      ],
      "name": "getCoreUserByMatrixPosition",
      "outputs": [
        {
          "internalType": "address",
          "name": "userAddress",
          "type": "address"
        },
        {
          "components": [
            {
              "internalType": "uint256",
              "name": "claims",
              "type": "uint256"
            },
            {
              "internalType": "uint256",
              "name": "gifts",
              "type": "uint256"
            },
            {
              "internalType": "uint256",
              "name": "level",
              "type": "uint256"
            },
            {
              "internalType": "address",
              "name": "whose",
              "type": "address"
            },
            {
              "internalType": "bool",
              "name": "isValue",
              "type": "bool"
            }
          ],
          "internalType": "struct Core.UserGlobal",
          "name": "user",
          "type": "tuple"
        }
      ],
      "stateMutability": "view",
      "type": "function"
    },
    {
      "inputs": [
        {
          "internalType": "uint256",
          "name": "_level",
          "type": "uint256"
        }
      ],
      "name": "getLevelContract",
      "outputs": [
        {
          "internalType": "address",
          "name": "",
          "type": "address"
        }
      ],
      "stateMutability": "view",
      "type": "function"
    },
    {
      "inputs": [],
      "name": "getTenPercentOnceYear",
      "outputs": [],
      "stateMutability": "nonpayable",
      "type": "function"
    },
    {
      "inputs": [
        {
          "internalType": "address",
          "name": "_userAddress",
          "type": "address"
        }
      ],
      "name": "getUserFromCore",
      "outputs": [
        {
          "components": [
            {
              "internalType": "uint256",
              "name": "claims",
              "type": "uint256"
            },
            {
              "internalType": "uint256",
              "name": "gifts",
              "type": "uint256"
            },
            {
              "internalType": "uint256",
              "name": "level",
              "type": "uint256"
            },
            {
              "internalType": "address",
              "name": "whose",
              "type": "address"
            },
            {
              "internalType": "bool",
              "name": "isValue",
              "type": "bool"
            }
          ],
          "internalType": "struct Core.UserGlobal",
          "name": "user",
          "type": "tuple"
        }
      ],
      "stateMutability": "view",
      "type": "function"
    },
    {
      "inputs": [
        {
          "internalType": "uint256",
          "name": "_matrixIdx",
          "type": "uint256"
        },
        {
          "internalType": "address",
          "name": "_userWallet",
          "type": "address"
        }
      ],
      "name": "getUserFromMatrix",
      "outputs": [
        {
          "components": [
            {
              "internalType": "uint256",
              "name": "index",
              "type": "uint256"
            },
            {
              "internalType": "uint256",
              "name": "parent",
              "type": "uint256"
            },
            {
              "internalType": "bool",
              "name": "isRight",
              "type": "bool"
            },
            {
              "internalType": "uint256",
              "name": "plateau",
              "type": "uint256"
            },
            {
              "internalType": "bool",
              "name": "isValue",
              "type": "bool"
            }
          ],
          "internalType": "struct MatrixTemplate.User",
          "name": "user",
          "type": "tuple"
        }
      ],
      "stateMutability": "view",
      "type": "function"
    },
    {
      "inputs": [],
      "name": "lastUpdated",
      "outputs": [
        {
          "internalType": "uint256",
          "name": "",
          "type": "uint256"
        }
      ],
      "stateMutability": "view",
      "type": "function"
    },
    {
      "inputs": [
        {
          "internalType": "address",
          "name": "_whose",
          "type": "address"
        }
      ],
      "name": "register",
      "outputs": [],
      "stateMutability": "payable",
      "type": "function"
    },
    {
      "inputs": [
        {
          "internalType": "address",
          "name": "_wallet",
          "type": "address"
        },
        {
          "internalType": "uint256",
          "name": "_matrixIndex",
          "type": "uint256"
        }
      ],
      "name": "sendHalf",
      "outputs": [],
      "stateMutability": "nonpayable",
      "type": "function"
    },
    {
      "inputs": [
        {
          "internalType": "address",
          "name": "_userAddress",
          "type": "address"
        },
        {
          "internalType": "uint256",
          "name": "_matrixIndex",
          "type": "uint256"
        },
        {
          "internalType": "uint256",
          "name": "_field",
          "type": "uint256"
        }
      ],
      "name": "updateUser",
      "outputs": [],
      "stateMutability": "nonpayable",
      "type": "function"
    },
    {
      "inputs": [
        {
          "internalType": "uint256",
          "name": "_amount",
          "type": "uint256"
        }
      ],
      "name": "withdrawClaim",
      "outputs": [],
      "stateMutability": "nonpayable",
      "type": "function"
    },
    {
      "stateMutability": "payable",
      "type": "receive"
    }
  ],
  "bytecode": "0x60a0604052600180556000601755604051620031fa380380620031fa8339810160408190526200002f9162000262565b80516001600160a01b031660805260005b60068110156200017a5760008082116200005d5750815162000086565b826200006b60018462000328565b600681106200007e576200007e620002fc565b602002015190505b6040518060a00160405280600081526020016000815260200160138152602001826001600160a01b031681526020016001151581525060166000858560068110620000d557620000d5620002fc565b602090810291909101516001600160a01b03908116835282820193909352604091820160002084518155848201516001808301919091559285015160028201556060850151600390910180546080909601511515600160a01b026001600160a81b03199096169190941617939093179091556017546200016192909190620012f462000220821b17901c565b601755508062000171816200033e565b91505062000040565b5060005b60138111620002145760008130846040516200019a9062000237565b620001a8939291906200035a565b604051809103906000f080158015620001c5573d6000803e3d6000fd5b5090508060028360148110620001df57620001df620002fc565b0180546001600160a01b0319166001600160a01b039290921691909117905550806200020b816200033e565b9150506200017e565b505042600055620003c3565b60006200022e8284620003ad565b90505b92915050565b6117138062001ae783390190565b80516001600160a01b03811681146200025d57600080fd5b919050565b600060c082840312156200027557600080fd5b82601f8301126200028557600080fd5b60405160c081016001600160401b0381118282101715620002b657634e487b7160e01b600052604160045260246000fd5b6040528060c0840185811115620002cc57600080fd5b845b81811015620002f157620002e28162000245565b835260209283019201620002ce565b509195945050505050565b634e487b7160e01b600052603260045260246000fd5b634e487b7160e01b600052601160045260246000fd5b8181038181111562000231576200023162000312565b60006001820162000353576200035362000312565b5060010190565b8381526001600160a01b03838116602080840191909152610100830191604084018560005b6006811015620003a05781518416835291840191908401906001016200037f565b5050505050949350505050565b8082018082111562000231576200023162000312565b6080516116f3620003f46000396000818161040501528181610710015281816107ac0152610a7f01526116f36000f3fe6080604052600436106100b45760003560e01c806390e7af8f1161006e578063d0b06f5d1161004b578063d0b06f5d14610278578063dfac767c1461028e578063fb1359a3146102ae57005b806390e7af8f146101fc578063913a8f8814610234578063a224dcb71461025857005b80634420e4861161009c5780634420e4861461014d5780635f8e7d03146101605780638212e2bb1461019657005b806305ca4ba6146101185780632c4d363a1461013857005b36610116576001546001146101005760405162461bcd60e51b815260206004820152600d60248201526c4e6f207265656e7472616e637960981b60448201526064015b60405180910390fd5b600260015561010f33346102dc565b6001808055005b005b34801561012457600080fd5b506101166101333660046113de565b61059b565b34801561014457600080fd5b506101166107a1565b61011661015b366004611413565b610999565b34801561016c57600080fd5b5061018061017b366004611413565b610d2f565b60405161018d9190611430565b60405180910390f35b3480156101a257600080fd5b506101b66101b1366004611474565b610dd1565b60405161018d9190600060a08201905082518252602083015160208301526040830151151560408301526060830151606083015260808301511515608083015292915050565b34801561020857600080fd5b5061021c6102173660046114a4565b610ea7565b6040516001600160a01b03909116815260200161018d565b34801561024057600080fd5b5061024a60175481565b60405190815260200161018d565b34801561026457600080fd5b506101166102733660046114a4565b610f1e565b34801561028457600080fd5b5061024a60005481565b34801561029a57600080fd5b506101166102a93660046114bd565b6110aa565b3480156102ba57600080fd5b506102ce6102c93660046114e9565b6111c6565b60405161018d92919061150b565b6001600160a01b03821660009081526016602052604081206003015481908190600160a01b900460ff161561036b576001600160a01b03851660009081526016602052604090205461032f9085906112f4565b6001600160a01b0386166000908152601660205260409020600201549093506103599060016112f4565b915061036482611306565b905061037c565b5082915060009050662386f26fc100005b60138211610594575b808310610578576001600160a01b038516600090815260166020526040902060030154600160a01b900460ff16156103de576001600160a01b03851660009081526016602052604090206002810183905583905561049f565b6040805160a081018252848152600060208083018281528385018381526001600160a01b037f00000000000000000000000000000000000000000000000000000000000000008116606087019081526001608088018181528e841688526016909652979095209551865591518587015551600285015591516003909301805491511515600160a01b0274ffffffffffffffffffffffffffffffffffffffffff19909216939092169290921791909117905560175461049b916112f4565b6017555b600282601481106104b2576104b261155e565b0154604051632210724360e11b81526001600160a01b03878116600483015290911690634420e48690602401600060405180830381600087803b1580156104f857600080fd5b505af115801561050c573d6000803e3d6000fd5b50506040518492506001600160a01b03881691507fe29d35093005f4d575e1003753426b57a7f64378ba73332eef9c6ccc2b8decd690600090a38215610573576105568382611347565b9250610563816002611353565b90506105708260016112f4565b91505b610385565b6001600160a01b03851660009081526016602052604090208390555b5050505050565b6105a43361135f565b6105f05760405162461bcd60e51b815260206004820152600f60248201527f6163636573732064656e6965642031000000000000000000000000000000000060448201526064016100f7565b60006105fb83611306565b905060008260000361064e576001600160a01b03851660009081526016602052604090206001015461062d90836112f4565b6001600160a01b0386166000908152601660205260409020600101556106f4565b8260010361069b576001600160a01b03851660009081526016602052604090205461067990836112f4565b6001600160a01b038616600090815260166020526040902081905590506106f4565b826002036106f4576001600160a01b0380861660009081526016602052604080822060030154909216808252919020546106d590846112f4565b6001600160a01b03909116600090815260166020526040902081905590505b6000610701836002611353565b905080821015801561074557507f00000000000000000000000000000000000000000000000000000000000000006001600160a01b0316866001600160a01b031614155b80156107515750601385105b15610761576107618660006102dc565b8084876001600160a01b03167f97ce9d7086176d6da45e4e7999788176e2629a7591ffe505b0c1b13fe8052cc660405160405180910390a4505050505050565b336001600160a01b037f000000000000000000000000000000000000000000000000000000000000000016146108195760405162461bcd60e51b815260206004820152600f60248201527f6163636573732064656e6965642033000000000000000000000000000000000060448201526064016100f7565b47806108675760405162461bcd60e51b815260206004820152601060248201527f62616c616e636520697320656d7074790000000000000000000000000000000060448201526064016100f7565b6000610893601861088d603c61088d603c61088d6000544261134790919063ffffffff16565b906113bd565b905061016d8110156108e75760405162461bcd60e51b815260206004820152600f60248201527f79656172206e6f7420706173736564000000000000000000000000000000000060448201526064016100f7565b60006108f483600a6113bd565b604051909150600090339083908381818185875af1925050503d8060008114610939576040519150601f19603f3d011682016040523d82523d6000602084013e61093e565b606091505b505090508061098f5760405162461bcd60e51b815260206004820152600d60248201527f53656e64696e672065727220350000000000000000000000000000000000000060448201526064016100f7565b5050426000555050565b6001546001146109db5760405162461bcd60e51b815260206004820152600d60248201526c4e6f207265656e7472616e637960981b60448201526064016100f7565b600260015533600090815260166020526040902060030154600160a01b900460ff1615610a4a5760405162461bcd60e51b815260206004820152601760248201527f7573657220616c7265616479207265676973746572656400000000000000000060448201526064016100f7565b6001600160a01b038116600090815260166020526040812060030154600160a01b900460ff1615610a7c575080610a9f565b507f00000000000000000000000000000000000000000000000000000000000000005b6001600160a01b038116600090815260166020526040812060010154662386f26fc100001115610b4857662386f26fc10000341015610b205760405162461bcd60e51b815260206004820152601160248201527f6e6f7420656e6f75676820616d6f756e7400000000000000000000000000000060448201526064016100f7565b662386f26fc10000341115610b4357610b4034662386f26fc10000611347565b90505b610b94565b6001600160a01b038216600090815260166020526040902060010154610b7590662386f26fc10000611347565b6001600160a01b03831660009081526016602052604090206001015550345b6040805160a081018252600080825260208083018281528385018381526001600160a01b03808916606087019081526001608088018181523388526016909652978620965187559251968601969096555160028086019190915590516003909401805492511515600160a01b0274ffffffffffffffffffffffffffffffffffffffffff199093169490951693909317179092550154604051632210724360e11b81523360048201526001600160a01b0390911690634420e48690602401600060405180830381600087803b158015610c6b57600080fd5b505af1158015610c7f573d6000803e3d6000fd5b505050506000811115610d2657604051600090339083908381818185875af1925050503d8060008114610cce576040519150601f19603f3d011682016040523d82523d6000602084013e610cd3565b606091505b5050905080610d245760405162461bcd60e51b815260206004820152600d60248201527f53656e64696e672065727220330000000000000000000000000000000000000060448201526064016100f7565b505b50506001805550565b610d6c6040518060a0016040528060008152602001600081526020016000815260200160006001600160a01b031681526020016000151581525090565b506001600160a01b03908116600090815260166020908152604091829020825160a081018452815481526001820154928101929092526002810154928201929092526003909101549182166060820152600160a01b90910460ff161515608082015290565b610e076040518060a001604052806000815260200160008152602001600015158152602001600081526020016000151581525090565b60028360148110610e1a57610e1a61155e565b01546040517f6f77926b0000000000000000000000000000000000000000000000000000000081526001600160a01b03848116600483015290911690636f77926b9060240160a060405180830381865afa158015610e7c573d6000803e3d6000fd5b505050506040513d601f19601f82011682018060405250810190610ea09190611589565b9392505050565b60006013821115610efa5760405162461bcd60e51b815260206004820152601660248201527f5f6c6576656c2065786365656473206d6178696d756d0000000000000000000060448201526064016100f7565b60028260148110610f0d57610f0d61155e565b01546001600160a01b031692915050565b33600090815260166020526040902054811015610ff95733600090815260166020526040902054610f4f9082611347565b3360008181526016602052604080822093909355915183908381818185875af1925050503d8060008114610f9f576040519150601f19603f3d011682016040523d82523d6000602084013e610fa4565b606091505b5050905080610ff55760405162461bcd60e51b815260206004820152600d60248201527f53656e64696e672065727220310000000000000000000000000000000000000060448201526064016100f7565b5050565b33600081815260166020526040808220805490839055905190929083908381818185875af1925050503d806000811461104e576040519150601f19603f3d011682016040523d82523d6000602084013e611053565b606091505b50509050806110a45760405162461bcd60e51b815260206004820152600d60248201527f53656e64696e672065727220320000000000000000000000000000000000000060448201526064016100f7565b50505b50565b6110b33361135f565b6110ff5760405162461bcd60e51b815260206004820152600f60248201527f6163636573732064656e6965642032000000000000000000000000000000000060448201526064016100f7565b6013811061110b575050565b600061111b600261088d84611306565b90506000836001600160a01b03168260405160006040518083038185875af1925050503d806000811461116a576040519150601f19603f3d011682016040523d82523d6000602084013e61116f565b606091505b50509050806111c05760405162461bcd60e51b815260206004820152600d60248201527f53656e64696e672065727220340000000000000000000000000000000000000060448201526064016100f7565b50505050565b6040805160a0810182526000808252602082018190529181018290526060810182905260808101829052600284601481106112035761120361155e565b01546040517fcca76c5d000000000000000000000000000000000000000000000000000000008152600481018590526001600160a01b039091169063cca76c5d90602401602060405180830381865afa158015611264573d6000803e3d6000fd5b505050506040513d601f19601f820116820180604052508101906112889190611612565b6001600160a01b03818116600090815260166020908152604091829020825160a081018452815481526001820154928101929092526002810154928201929092526003909101549182166060820152600160a01b90910460ff1615156080820152909590945092505050565b6000610ea08284611645565b92915050565b6000662386f26fc1000082156113005760005b838110156113405761132c826002611353565b91508061133881611658565b915050611319565b5092915050565b6000610ea08284611671565b6000610ea08284611684565b6000805b60148110156113b457826001600160a01b0316600282601481106113895761138961155e565b01546001600160a01b0316036113a25750600192915050565b806113ac81611658565b915050611363565b50600092915050565b6000610ea0828461169b565b6001600160a01b03811681146110a757600080fd5b6000806000606084860312156113f357600080fd5b83356113fe816113c9565b95602085013595506040909401359392505050565b60006020828403121561142557600080fd5b8135610ea0816113c9565b60a0810161130082848051825260208101516020830152604081015160408301526001600160a01b0360608201511660608301526080810151151560808301525050565b6000806040838503121561148757600080fd5b823591506020830135611499816113c9565b809150509250929050565b6000602082840312156114b657600080fd5b5035919050565b600080604083850312156114d057600080fd5b82356114db816113c9565b946020939093013593505050565b600080604083850312156114fc57600080fd5b50508035926020909101359150565b6001600160a01b038316815260c08101610ea060208301848051825260208101516020830152604081015160408301526001600160a01b0360608201511660608301526080810151151560808301525050565b634e487b7160e01b600052603260045260246000fd5b8051801515811461158457600080fd5b919050565b600060a0828403121561159b57600080fd5b60405160a0810181811067ffffffffffffffff821117156115cc57634e487b7160e01b600052604160045260246000fd5b806040525082518152602083015160208201526115eb60408401611574565b60408201526060830151606082015261160660808401611574565b60808201529392505050565b60006020828403121561162457600080fd5b8151610ea0816113c9565b634e487b7160e01b600052601160045260246000fd5b808201808211156113005761130061162f565b60006001820161166a5761166a61162f565b5060010190565b818103818111156113005761130061162f565b80820281158282048414176113005761130061162f565b6000826116b857634e487b7160e01b600052601260045260246000fd5b50049056fea2646970667358221220a5c20f434e8d8c25ff84bee2c3eb9e748c0691d345cfa8c4df2b558a370a133a64736f6c6343000811003360c06040523480156200001157600080fd5b50604051620017133803806200171383398101604081905262000034916200059e565b60005b60068160ff161015620001ac576000808062000052620001c6565b6040805160a0810182526002548152602081018590526000918101829052606081018490526001608082015293965091945092508290036200009657600160408201525b80600080888860ff1660068110620000b257620000b26200064c565b602090810291909101516001600160a01b031682528181019290925260409081016000208351815591830151600183015582015160028201805491151560ff199283161790556060830151600383015560809092015160049091018054911515919092161790558560ff8616600681106200013157620001316200064c565b6020020151600160008760ff16815260200190815260200160002060006101000a8154816001600160a01b0302191690836001600160a01b031602179055506200018d6001600254620004e660201b6200050a1790919060201c565b60025550839250620001a3915082905062000678565b91505062000037565b50506080919091526001600160a01b031660a05262000831565b600080600080620003aa620001ec60028054620004e660201b6200050a1790919060201c565b604080517ff8f9cbfae6cc78fbefe7cdc3a1793dfcf4f0e8bbd8cec470b6a28a7a5a3e1efd81527ff5ecf1b3e9debc68e1d9cfabc5997135bfb7a7a3938b7b606b5b4b3f2f1f0ffe60208201527ff6e4ed9ff2d6b458eadcdf97bd91692de2d4da8fd2d0ac50c6ae9a8272523616818301527fc8c0b887b0a8a4489c948c7f847c6125746c645c544c444038302820181008ff60608201527ff7cae577eec2a03cf3bad76fb589591debb2dd67e0aa9834bea6925f6a4a2e0e60808201527fe39ed557db96902cd38ed14fad815115c786af479b7e8324736353433727170760a08201527fc976c13bb96e881cb166a933a55e490d9d56952b8d4e801485467d236242260660c08201527f753a6d1b65325d0c552a4d1345224105391a310b29122104190a11030902010060e0820152610100808201909252600160f81b6001600160801b68010000000000000000640100000000620100006010600460026000198c019081041790810417908104178881041790810417908104179081041790810417017e818283848586878898a8b8c8d8e8f929395969799a9b9d9e9faaeb6bedeeff0281900460ff039091015104600160ff1b909211020190565b905060006002821015620003c157506000620003eb565b620003e86000620003e2600285620004fd60201b6200051f1790919060201c565b6200050b565b90505b60006200040e6000620003e2600186620004fd60201b6200051f1790919060201c565b90506000816002546200042291906200069a565b6200042f906001620006b0565b905060006200044e6002836200054f60201b6200052b1790919060201c565b905060006200046d6002846200055d60201b620005371790919060201c565b9050600181101562000482575060016200049f565b6200049c8282620004e660201b6200050a1790919060201c565b90505b6000620004d5620004c0600184620004fd60201b6200051f1790919060201c565b87620004e660201b6200050a1790919060201c565b9a9699509197509495505050505050565b6000620004f48284620006b0565b90505b92915050565b6000620004f482846200069a565b6000825b82811015620005485762000525816002620007c3565b620005319083620006b0565b9150806200053f81620007d1565b9150506200050f565b5092915050565b6000620004f4828462000803565b6000620004f482846200081a565b80516001600160a01b03811681146200058357600080fd5b919050565b634e487b7160e01b600052604160045260246000fd5b6000806000610100808587031215620005b657600080fd5b845193506020620005c98187016200056b565b935086605f870112620005db57600080fd5b60405160c081016001600160401b038111828210171562000600576200060062000588565b6040529186019180888411156200061657600080fd5b604088015b848110156200063d576200062f816200056b565b82529083019083016200061b565b50508093505050509250925092565b634e487b7160e01b600052603260045260246000fd5b634e487b7160e01b600052601160045260246000fd5b600060ff821660ff810362000691576200069162000662565b60010192915050565b81810381811115620004f757620004f762000662565b80820180821115620004f757620004f762000662565b600181815b8085111562000707578160001904821115620006eb57620006eb62000662565b80851615620006f957918102915b93841c9390800290620006cb565b509250929050565b6000826200072057506001620004f7565b816200072f57506000620004f7565b8160018114620007485760028114620007535762000773565b6001915050620004f7565b60ff84111562000767576200076762000662565b50506001821b620004f7565b5060208310610133831016604e8410600b841016171562000798575081810a620004f7565b620007a48383620006c6565b8060001904821115620007bb57620007bb62000662565b029392505050565b6000620004f483836200070f565b600060018201620007e657620007e662000662565b5060010190565b634e487b7160e01b600052601260045260246000fd5b600082620008155762000815620007ed565b500690565b6000826200082c576200082c620007ed565b500490565b60805160a051610e68620008ab600039600081816102200152818161024d015281816104100152818161093a015281816109f001528181610a6b0152610ae601526000818161015d015281816103e9015281816108c80152818161090d015281816109c301528181610a3e0152610ab90152610e686000f3fe608060405234801561001057600080fd5b50600436106100885760003560e01c80639a0fa3c01161005b5780639a0fa3c014610158578063cca76c5d1461017f578063d88f666b146101a8578063ffc0483d1461021b57600080fd5b80634420e4861461008d578063554d63c5146100a25780636f77926b146100be578063984da82e14610117575b600080fd5b6100a061009b366004610c66565b610242565b005b6100ab60025481565b6040519081526020015b60405180910390f35b6100d16100cc366004610c66565b610474565b6040516100b59190600060a08201905082518252602083015160208301526040830151151560408301526060830151606083015260808301511515608083015292915050565b610140610125366004610c96565b6001602052600090815260409020546001600160a01b031681565b6040516001600160a01b0390911681526020016100b5565b6100ab7f000000000000000000000000000000000000000000000000000000000000000081565b61014061018d366004610c96565b6000908152600160205260409020546001600160a01b031690565b6101ea6101b6366004610c66565b600060208190529081526040902080546001820154600283015460038401546004909401549293919260ff91821692911685565b6040516100b59594939291909485526020850193909352901515604084015260608301521515608082015260a00190565b6101407f000000000000000000000000000000000000000000000000000000000000000081565b336001600160a01b037f000000000000000000000000000000000000000000000000000000000000000016146102d8576040517f08c379a000000000000000000000000000000000000000000000000000000000815260206004820152601060248201527f6163636573732064656e69656420303200000000000000000000000000000000604482015260640160405180910390fd5b60008060006102e5610543565b6040805160a081018252600254815260208101859052600091810182905260608101849052600160808201529396509194509250829003610336576001604082015283156103365761033684610825565b6001600160a01b03851660009081526020818152604091829020835181559083015160018201559082015160028201805491151560ff19928316179055606083015160038301556080830151600490920180549215159290911691909117905561039f85610bd3565b600084815260016020526040908190205490517fdfac767c0000000000000000000000000000000000000000000000000000000081526001600160a01b03918216600482018190527f00000000000000000000000000000000000000000000000000000000000000006024830152917f0000000000000000000000000000000000000000000000000000000000000000169063dfac767c90604401600060405180830381600087803b15801561045457600080fd5b505af1158015610468573d6000803e3d6000fd5b50505050505050505050565b6104aa6040518060a001604052806000815260200160008152602001600015158152602001600081526020016000151581525090565b506001600160a01b031660009081526020818152604091829020825160a08101845281548152600182015492810192909252600281015460ff90811615159383019390935260038101546060830152600401549091161515608082015290565b60006105168284610cc5565b90505b92915050565b60006105168284610cd8565b60006105168284610d01565b60006105168284610d15565b6000806000806107646105616002805461050a90919063ffffffff16565b604080517ff8f9cbfae6cc78fbefe7cdc3a1793dfcf4f0e8bbd8cec470b6a28a7a5a3e1efd81527ff5ecf1b3e9debc68e1d9cfabc5997135bfb7a7a3938b7b606b5b4b3f2f1f0ffe60208201527ff6e4ed9ff2d6b458eadcdf97bd91692de2d4da8fd2d0ac50c6ae9a8272523616818301527fc8c0b887b0a8a4489c948c7f847c6125746c645c544c444038302820181008ff60608201527ff7cae577eec2a03cf3bad76fb589591debb2dd67e0aa9834bea6925f6a4a2e0e60808201527fe39ed557db96902cd38ed14fad815115c786af479b7e8324736353433727170760a08201527fc976c13bb96e881cb166a933a55e490d9d56952b8d4e801485467d236242260660c08201527f753a6d1b65325d0c552a4d1345224105391a310b29122104190a11030902010060e08201526101008082019092527f0100000000000000000000000000000000000000000000000000000000000000600170010000000000000000000000000000000068010000000000000000640100000000620100006010600460026000198c019081041790810417908104178881041790810417908104179081041790810417017e818283848586878898a8b8c8d8e8f929395969799a9b9d9e9faaeb6bedeeff0281900460ff0390910151047f8000000000000000000000000000000000000000000000000000000000000000909211020190565b90506000600282101561077957506000610791565b61078e600061078984600261051f565b610c2a565b90505b60006107a28161078985600161051f565b90506000816002546107b49190610cd8565b6107bf906001610cc5565b905060006107ce82600261052b565b905060006107dd836002610537565b905060018110156107f0575060016107fd565b6107fa818361050a565b90505b600061081461080d83600161051f565b879061050a565b9a9699509197509495505050505050565b6000818152600160208181526040808420546001600160a01b031680855284835293819020815160a08101835281548152938101549284019290925260028083015460ff9081161515928501929092526003830154606085015260049092015416151560808301525b60058111610bcd57816040015115610bcd576020808301516000908152600190915260409020546001600160a01b031660038211610a9a577f000000000000000000000000000000000000000000000000000000000000000060000361099c576040516302e525d360e11b81526001600160a01b0382811660048301527f00000000000000000000000000000000000000000000000000000000000000006024830152600060448301527f000000000000000000000000000000000000000000000000000000000000000016906305ca4ba6906064015b600060405180830381600087803b15801561097f57600080fd5b505af1158015610993573d6000803e3d6000fd5b50505050610b50565b81600203610a1f576040516302e525d360e11b81526001600160a01b0382811660048301527f00000000000000000000000000000000000000000000000000000000000000006024830152600260448301527f000000000000000000000000000000000000000000000000000000000000000016906305ca4ba690606401610965565b6040516302e525d360e11b81526001600160a01b0382811660048301527f00000000000000000000000000000000000000000000000000000000000000006024830152600160448301527f000000000000000000000000000000000000000000000000000000000000000016906305ca4ba690606401610965565b6040516302e525d360e11b81526001600160a01b0382811660048301527f00000000000000000000000000000000000000000000000000000000000000006024830152600160448301527f000000000000000000000000000000000000000000000000000000000000000016906305ca4ba690606401600060405180830381600087803b158015610b2a57600080fd5b505af1158015610b3e573d6000803e3d6000fd5b5050505081600503610b505750610bcd565b50602091820151600090815260018084526040808320546001600160a01b0316835282855291829020825160a081018452815481529181015494820194909452600284015460ff90811615159282019290925260038401546060820152600490930154161515608083015280610bc581610d29565b91505061088e565b50505050565b60028054600090815260016020819052604090912080547fffffffffffffffffffffffff0000000000000000000000000000000000000000166001600160a01b0385161790559054610c249161050a565b60025550565b6000825b82811015610c5f57610c41816002610e26565b610c4b9083610cc5565b915080610c5781610d29565b915050610c2e565b5092915050565b600060208284031215610c7857600080fd5b81356001600160a01b0381168114610c8f57600080fd5b9392505050565b600060208284031215610ca857600080fd5b5035919050565b634e487b7160e01b600052601160045260246000fd5b8082018082111561051957610519610caf565b8181038181111561051957610519610caf565b634e487b7160e01b600052601260045260246000fd5b600082610d1057610d10610ceb565b500690565b600082610d2457610d24610ceb565b500490565b600060018201610d3b57610d3b610caf565b5060010190565b600181815b80851115610d7d578160001904821115610d6357610d63610caf565b80851615610d7057918102915b93841c9390800290610d47565b509250929050565b600082610d9457506001610519565b81610da157506000610519565b8160018114610db75760028114610dc157610ddd565b6001915050610519565b60ff841115610dd257610dd2610caf565b50506001821b610519565b5060208310610133831016604e8410600b8410161715610e00575081810a610519565b610e0a8383610d42565b8060001904821115610e1e57610e1e610caf565b029392505050565b60006105168383610d8556fea26469706673582212207b07217d826b6e1fd55011c2de3732f907d9793016b503a69989c8cbc85bbf3164736f6c63430008110033",
  "linkReferences": {},
  "deployedLinkReferences": {}
}